:020000040800F2
:10000000D00700200101000827200008951D0008E6
:1000100025200008A107000899270008000000001B
:100020000000000000000000000000000F23000896
:1000300017080008000000000D2300081123000825
:100040001B0100081B0100081B0100081B01000820
:100050001B0100081B0100081B0100081B01000810
:100060001B0100081B0100081B0100081B01000800
:10007000A5070008B1070008BD070008C907000868
:10008000D5070008E10700081B0100081B01000854
:100090001B0100081B0100081B0100081B010008D0
:1000A0001B0100081B0100081B0100081B010008C0
:1000B000AD2300081B0100081B0100081B010008FC
:1000C0001B0100081B0100081B0100081B010008A0
:1000D0001B01000875270008812700088D270008EC
:1000E0001B0100081B0100081B010008DFF80CD0F1
:1000F00000F0C6FA0048004731310008D007002060
:100100000648804706480047FEE7FEE7FEE7FEE7B1
:10011000FEE7FEE7FEE7FEE7FEE7FEE765230008F1
:10012000ED000008202A04DB203A21FA02F0002129
:10013000704721FA02F3D040C2F1200291400843F7
:1001400019467047D2B201E000F8012B491EFBD2DC
:1001500070470022F6E710B513460A4604461946D2
:10016000FFF7F0FF204610BD30B480EA010202F034
:10017000004530F0004221F0004013D090B1C30D93
:10018000D40DC2F31601C0F31600E41A41F40001C5
:1001900040F400027D34914201D3641C00E0490028
:1001A000002C02DA30BC002070474FF4000000231E
:1001B000914201D3891A034340084FEA4101F7D124
:1001C00051B1914202D14FF0004105E002D24FF00F
:1001D000010101E06FF0010103EBC450284430BC81
:1001E00000F05FB896230022114600F063B800F0DB
:1001F000004230F000400AD0C10D01F56071C0F33B
:10020000160042EA0151C20840071143704700201E
:100210000146704730B50B460146002020220124DC
:1002200009E021FA02F59D4205D303FA02F5491BC4
:1002300004FA02F52844151EA2F10102F1DC30BDDA
:100240002DE9F05F0546002092469B46884606460B
:10025000814640241BE02846414647462246FFF798
:1002600061FF53465A46C01A914110D311461846B1
:10027000224600F017FA2D1A67EB01084F46224676
:100280000120002100F00EFA17EB00094E41201E5C
:10029000A4F10104DFDC484631462A464346BDE866
:1002A000F09F0029A8BF7047401C490008BF20F0FC
:1002B0000100704710B4B0FA80FC00FA0CF050EA6C
:1002C000010404BF10BC704749B1CCF1200421FAED
:1002D00004F411FA0CF118BF012121430843A3EBE8
:1002E0000C01CB1D4FEA00614FEA102042BF0020F5
:1002F00010BC704700EBC35010440029A4BF10BCD1
:100300007047401C490008BF20F0010010BC704736
:100310002DE9FE4F804681EA0300C00F0C46009095
:1003200021F0004123F00045B8EB0200A94105D2BD
:100330004046214690461C460B46024623F00040AC
:10034000104347D0270DC7F30A00C3F30A510290A8
:10035000401A019040286BDAC3F3130040F4801B6D
:100360000098924620B10023D2EB030A63EB0B0BFB
:1003700001985946C0F14002504600F093F90646F4
:100380000D4650465946019A00F09BF910EB0800C3
:100390006141002487EA115284EAE7731A4340D08E
:1003A000009A62B3019A012A4FEA075215DC001B3A
:1003B00061EB02014FF0004202EA0752CDE9004230
:1003C000001C41F5801132462B4600F09BF903B02A
:1003D000BDE8F08F40462146F9E7001B61EB0201C2
:1003E000001C41F5801300185B412018A2F500178E
:1003F00047EB030140EAD570B6196D4111E06D0875
:100400004FEA360645EAC0754FEA0752001B61EB1A
:100410000201001C41F5801149084FEA3000001923
:10042000514132462B4603B0BDE8F04F00F05BB9B6
:100430000098012240000023D0EB020263EBE0733E
:10044000009821464FEAE074B8EB000061EB04012C
:10045000E9E783F000435BE781F0004158E72DE9CD
:10046000FE4F81EA030404F0004421F000410094AF
:100470004FF0000B23F0004350EA01045ED052EA33
:1004800003045BD0C3F30A54C1F30A552C44A4F20D
:10049000F3340194A0FB0254C1F3130141F4801121
:1004A000C3F3130343F4801301FB024400FB034E28
:1004B000840A970A44EA815447EA8357A4FB0768F1
:1004C00002958D0A05FB07854FEA932C04FB0C541B
:1004D0002705029D4FEA065847EA1637B5EB08058F
:1004E0006EEB070C870E920E47EA811742EA8312E1
:1004F000A7FB0201B6EB0B0164EB00042B0D43EAF2
:100500000C335E1844EB1C50DA465146E7FB0201FF
:10051000C5F313044FEA0B3343EA14534FEA043292
:10052000019C43EA0603A4F10C040294009CCDE96B
:1005300000B400F0E7F803B0BDE8F08F00200146FA
:10054000F9E72DE9F04D81EA030404F0004B21F0B6
:10055000004514464FF0000A23F0004150EA05021E
:1005600020D054EA01021DD0C5F30A570246C5F354
:100570001303C1F31300C1F30A5640F4801543F48A
:100580008013A7EB0608101BD64608F2FD3873EB64
:10059000050002D308F1010801E092185B41B8F1AF
:1005A000000F03DA00200146BDE8F08D00204FF473
:1005B0008011064684460EE0171B73EB050705D332
:1005C000121B63EB050306434CEA010C49084FEA92
:1005D000300092185B4150EA0107EDD152EA030066
:1005E00012D082EA040083EA0501084305D0101BFB
:1005F000AB4106D20122002306E000224FF0004367
:1006000002E06FF0010253101AEB06004CEB0851A8
:1006100010EB0A0041EB0B01BDE8F04D00F063B8B0
:10062000C1F30A52C1F3130140F2FF3341F48011C8
:100630009A4202DA00200146704740F233439A4260
:10064000A2F2334202DC5242FFF76CBD00F02AB83E
:1006500030B5041E71F1000404DB4FF00044404249
:1006600064EB0101141E73F1000405DB1C464FF01E
:100670000043524263EB0403994208BF904230BDED
:10068000064C074D06E0E06840F0010394E80700DF
:1006900098471034AC42F6D3FFF72CFDC431000864
:1006A000E4310008202A04DB203A00FA02F100209D
:1006B00070479140C2F1200320FA03F319439040A0
:1006C0007047202A06DBCB17203A41FA02F043EAB2
:1006D000E07306E041FA02F3D040C2F120029140FB
:1006E00008431946704710B5141E73F1000408DA68
:1006F000401C41F1000192185B411A4301D120F0E6
:10070000010010BD2DE9F04D92469B4611B1B1FAA2
:1007100081F202E0B0FA80F220329046FFF7C2FF89
:1007200004460F4640EA0A0041EA0B0153465A4686
:10073000084313D0114653EA010019D0C8F1400212
:100740005046FFF7EFFC05460E46504659464246D6
:10075000FFF7A8FF084305D0012004E020463946F2
:10076000BDE8F08D0020054346EAE0762C43374390
:100770000A986305E40AA0EB08000022FD0A44EA97
:1007800047540A3002D500200146E9E70105101957
:100790006941DDE9084500196941BDE8F04DA2E76E
:1007A000FEE70000014800F085B800008803002043
:1007B000014800F07FB8000044030020014800F029
:1007C00079B8000078020020014800F073B80000FA
:1007D00034020020014800F06DB80000BC02002087
:1007E000014800F067B800000003002030B590F821
:1007F00040500124AC40C56B6C6004686360436882
:10080000102B036803D099600068C26030BD9A6005
:100810000068C16030BD70477047000010B590F8A7
:1008200021100024022903D00421816301243DE02A
:1008300001680A6822F00E020A6001680A6822F064
:1008400001020A601A4A0168914201D1012121E0A6
:10085000174A1432914201D110211BE0144A283268
:10086000914201D1891515E0114A3C32914201D1E2
:1008700089140FE00E4A5032914202D14FF4803178
:1008800008E00B4A6432914202D14FF4801101E03A
:100890004FF08071064A083A5160012180F821101A
:1008A000002180F82010416B01B18847204610BD1F
:1008B000080002402DE9F05FC16B0C6801680B680D
:1008C000D0F840C0042202FA0CF2494DDFF824A10E
:1008D000494E4A4FDFF828B1DFF828E122422CD0F8
:1008E0005A072AD50A68920603D40A6822F004023D
:1008F0000A600168A94201D1042219E0514501D1E1
:10090000402215E0B14202D14FF4806210E0B942BA
:1009100002D14FF480420BE0594502D14FF48022BE
:1009200006E0714502D14FF4800201E04FF0806291
:100930002F4908394A60C16A3BE04FF0020808FAC3
:100940000CF818EA040F4FF000094FF0010235D0FF
:100950005FEA837832D50B689B0605D40B6823F0D9
:100960000A030B6080F821200168A94201D102220C
:1009700019E0514501D1202215E0B14202D14FF4D6
:10098000007210E0B94202D14FF400520BE0594519
:1009900002D14FF4003206E0714502D14FF400124B
:1009A00001E04FF00072124908394A6080F8209047
:1009B000816A00291AD0BDE8F05F0847082505FACA
:1009C0000CF5254212D01B0710D50B6823F00E033F
:1009D0000B6090F84010C36B02FA01F1596082631A
:1009E00080F8212080F82090016BE2E7BDE8F09FBD
:1009F000080002401C000240300002404400024057
:100A0000580002406C00024030B528B308C81349B2
:100A100014221944B1FBF2F18900C16310498163CA
:100A2000022141771A6843F6F0718A43D0E9001435
:100A30002143D0E902452C43214304692143446901
:100A4000214384692143114319600021416301223C
:100A500042770177084630BD012030BDF8FFFDBF69
:100A60000000024070B5044690F8200000250128DF
:100A70000CD0012084F8200094F821600020012E81
:100A800006D084F820000225284670BD022070BDE3
:100A9000022684F82160A0632068066826F001061B
:100AA00006602046FFF7A2FEE06A00282068016881
:100AB00002D041F00E0106E021F00401016020683F
:100AC000016841F00A0101602068016841F00101FC
:100AD0000160D9E72DE9F84FDFF8B891002409F15A
:100AE000040A0AF1040B23460F270BF1040EC9E098
:100AF0000125A5402A40AA427DD1674ED1F804C005
:100B0000ACEB0608B44532D014DCBCF1030F3AD08C
:100B100009DCBCF1000F2AD0BCF1010F1CD0BCF1E4
:100B2000020F31D11DE0BCF1110F17D0BCF1120F33
:100B30002AD119E0B8F5881F19D006DCB8F5803F36
:100B400015D0B8F5801F1FD111E0B8F5001F0ED0E9
:100B5000B8F5041F18D10AE0CB6815E0CB681B1D5F
:100B600012E0CB6808330FE0CB680C330CE08B68E5
:100B70002BB1012B4FF0080303D0456104E004239F
:100B800002E0056100E00023FF2A01D8064601E0EB
:100B900000F104064FEA840501D9A5F12005D6F835
:100BA000008007FA05FC28EA0C0803FA05F548EA74
:100BB0000508C6F800804D68ED0062D5374DAE6976
:100BC00046F00106AE61AD6924F0030605F00105AB
:100BD0000095334D06EB050CDCF80850A607360FE0
:100BE00007FA06F825EA0805DFF8B880404503D182
:100BF0004FF0000817E044E0DFF8AC80404502D138
:100C00004FF001080FE0DFF8A480404502D14FF01B
:100C1000020808E0DFF89880404502D14FF0030851
:100C200001E04FF0040808FA06F848EA0508CCF895
:100C300008804D68D9F80060ED034D4601D5164394
:100C400000E096432E604D68DAF80060AD0355462B
:100C500001D5164300E096432E604D68DBF8006036
:100C6000ED025D4601D5164300E096432E604D68C7
:100C7000DEF80060AD02754601D5164300E09643EC
:100C80002E60641C0D682A46E5407FF431AFBDE854
:100C9000F88F000000040140000011100010024015
:100CA0000000014000080140000C0140001001401C
:100CB000001401408068084000D0012070470AB14C
:100CC000016170470904FBE7014880687047000034
:100CD0009400002070B504001BD094F83D0000255E
:100CE00020B984F83C50204600F0AEF8242084F867
:100CF0003D002068016821F00101016000F000FA68
:100D00004D4A6168914201D84C4900E04C49884203
:100D100001D2012070BD4B492368B0FBF1F15E6840
:100D200026F03F060E435E606368934206D94FF497
:100D3000967359434FF47A73B1FBF3F12368491C5E
:100D40001E6A26F03F06314319626168914210D84D
:100D50004900401EB0FBF1F2521CC2F30B02042A00
:100D600001D2042022E0B0FBF1F0401CC0F30B00E4
:100D70001CE0A368F3B301EBC10202EB0116421EB3
:100D8000B2FBF6F2521C42F48042120549D093B3F2
:100D900001EBC10202EB0111401EB0FBF1F0401C5F
:100DA000C0F30B0040F4804040F400402168CA6961
:100DB0004CF6FF739A431043C861D4E90701084316
:100DC00021680A6822F0C00210430860D4E90301D8
:100DD00001432068826848F2FF339A4311438160DF
:100DE000D4E9050108432168CA6822F0FF021043D4
:100DF000C86001E00EE016E02068016841F00101E2
:100E000001602564202084F83D00256384F83E506D
:100E1000002070BD01EB4106421EB2FBF6F2521CEF
:100E2000B3E70120C2E701EB4101401EB0FBF1F046
:100E3000401CC0F30B00B7E7A086010080841E00B1
:100E400000093D0040420F0010B586B0002100911E
:100E500001910291039100680F4988421AD10F4C09
:100E6000A06940F00800A061A069694600F0080090
:100E70000490C020009012200190032003900848A5
:100E8000FFF728FEE06940F40010E061E06900F43B
:100E90000010049006B010BD005400400010024045
:100EA000000C01400248816802781144816070475B
:100EB00094000020074810B5016841F0100101605E
:100EC000032000F075F8002000F006F800F024F888
:100ED000002010BD0020024070B50D4D04464FF4B7
:100EE0007A712878B1FBF0F00A490968B1FBF0F09B
:100EF00000F0ECFA48B9102C07D200222146501E0F
:100F000000F036F800206C6070BD012070BD00005C
:100F100094000020A00000200C4808B5816941F031
:100F200001018161816901F001010091C16941F014
:100F30008051C161C06900F0805000900448416850
:100F400021F0E06141F00071416008BD00100240F5
:100F500000000140002809DB00F01F020121914040
:100F60004009800000F1E020C0F800117047000047
:100F7000F0B40E4B1B680C46C3F30223C3F1070504
:100F8000042D00D90425191D072901D2002300E0F2
:100F9000DB1E012606FA05F1491E214099409E40BC
:100FA000761E16403143F0BC01F008BC0CED00E0A9
:100FB000064900F0070208684FF6FF03184040EAB0
:100FC0000220034A10430860704700000CED00E067
:100FD0000000FA052DE9F0470F46050061D0434EA9
:100FE000306800F00700B84209D2306820F00700EE
:100FF00038433060306800F00700B84251D12868AB
:101000003B4C810712D5400703D5606840F4E0608F
:1010100060602878000703D5606840F46050606025
:101020006068A96820F0F000084360602878C00775
:1010300028D06868012810D02168022810D08907BC
:1010400000292EDA616821F0030101436160FFF796
:101050003BFE804641F288390DE021688903EFE7C5
:101060008901EDE7FFF730FEA0EB0801494502D901
:101070000320BDE8F0876068696800F00C00B0EB01
:10108000810FEFD1306800F00700B8420BD930680B
:1010900020F0070038433060306800F00700B842A5
:1010A00001D00120E5E72878400705D56068E968A8
:1010B00020F4E060084360602878000706D5606887
:1010C000296920F4605040EAC100606000F038F8FF
:1010D0006168084AC1F30311515CC84006490860C1
:1010E00006480068FFF7F8FE0020C2E70020024033
:1010F00000100240AC310008A00000209800002041
:101100000448054900684968044AC1F30221515C5A
:10111000C8407047A000002000100240BC31000809
:101120000448054900684968044AC1F3C221515C7A
:10113000C8407047A000002000100240BC310008E9
:1011400012A185B00FC98DE80F0014A0144A0068E1
:1011500004905168134801F00C03042B10D0082BA5
:101160000ED1C1F38343C9031DF803000AD55168AA
:1011700004AAC1F34041515C0A4A5043B0FBF1F06C
:1011800005B0704708494843FAE700000203040528
:10119000060708090A0B0C0D0E0F101001020000C3
:1011A0000010024000127A0000093D002DE9F84FBE
:1011B000040070D02078C04DC00749D06868C0F3E3
:1011C0008100012807D06868C0F38100022809D196
:1011D0006868C00306D52868800339D56068002890
:1011E000E7D035E06068B0F5803F0BD010B1B0F5C6
:1011F000A02F11D0286820F480302860286820F4BF
:10120000802002E0286840F480302860606890B157
:10121000FFF75AFD06460AE0286840F4802028605F
:10122000F0E700BFFFF750FD801B642873D82868E3
:101230008003F7D50CE0FFF747FD064605E000BF49
:10124000FFF742FD801B6428F0D828688003F7D49C
:1012500020789A4E80074FF001094FF0000839D5E9
:10126000686810F00C0F07D06868C0F3810002288E
:1012700009D16868C00306D42868800714D520699E
:10128000012808D110E02069B0B1C6F80090FFF73E
:101290001BFD074605E00AE1FFF716FDC01B02280B
:1012A000C4D828688007F7D52868616920F0F8005D
:1012B00040EAC10028600DE0C6F80080FFF704FD99
:1012C000074604E0FFF700FDC01B022823D828686A
:1012D0008007F7D4207800072CD57948A169D9B1C7
:1012E000C0F80090FFF7F0FC074604E0FFF7ECFCC5
:1012F000C01B02280FD8686A8007F7D571484FF4E1
:10130000FA510068B0FBF1F0009000BF0098411E58
:101310000091FAD20EE080E0C0F80080FFF7D4FC24
:10132000074604E0FFF7D0FCC01B022875D8686AA6
:101330008007F7D42078400760D5E8690027C0000F
:1013400008D4E86940F08050E861E869012700F0BE
:10135000805000905C480168C90513D40168834639
:1013600041F480710160FFF7AFFC824606E000BFE8
:10137000FFF7AAFCA0EB0A0064284ED8DBF80000B7
:10138000C005F5D5E06801280AD008B1052813D0BA
:10139000286A20F001002862286A20F0040002E098
:1013A000286A40F001002862E06841F2883B98B169
:1013B000FFF78AFC82460BE0286A40F004002862AE
:1013C000EEE700BFFFF780FCA0EB0A0159455AD8B1
:1013D000286A8007F6D50CE0FFF776FC824605E028
:1013E000FFF772FCA0EB0A0159454CD8286A800728
:1013F000F6D41FB1E86920F08050E861E06988B355
:101400006968C1F38101022944D00228C6F86080CE
:1014100004D0FFF759FC044638E034E0FFF754FCF1
:10142000074604E0FFF750FCC01B02282BD82868B1
:101430008001F7D4206AB0F5803F05D16868A168C3
:1014400020F4003008436860D4E908010843696863
:1014500021F4741108436860C6F86090FFF734FC0B
:10146000044606E025E000BFFFF72EFC001B022823
:1014700009D828688001F7D51BE000BFFFF724FCDE
:10148000001B022802D90320BDE8F88F28688001DC
:10149000F4D40EE00128F7D06868226A00F48031A5
:1014A000914204D1616A00F47010884201D0012099
:1014B000EAE70020E8E70000001002400000424296
:1014C00080044242A00000200070004010B5401E81
:1014D000B0F1807F01D3012010BD4FF0E0246061A6
:1014E0000F21601701F06AF90020A0610720206138
:1014F000002010BD7047704770B590F83C20012A5D
:1015000019D0012400F83C4F0222427050F83C3CB4
:101510005A689D6822F070060A684968324325F0CF
:10152000800529435A6050F83C2C9160447000219A
:101530000170084670BD022070BD10B5040003D0D4
:1015400094F83D0010B107E0012010BD002084F8A0
:101550003C00204600F00CF8022084F83D00211DDC
:10156000206800F029FF012084F83D00002010BD14
:1015700008B50068B0F1804F12D10A48C16941F046
:101580000101C161C069002200F001000090114614
:101590001C20FFF7EDFCBDE808401C20FFF7DABC7B
:1015A00008BD0000001002400168CA6842F0010254
:1015B000CA600068816801F00701062903D001684C
:1015C00041F0010101600020704770B5044690F8B9
:1015D0003C00012817D0012584F83C50022084F8F3
:1015E0003D002068826822F0770222F47F42826008
:1015F0000868502830D00DDC20284DD005DC98B389
:1016000010283BD148E0022070BD302844D040284B
:1016100034D139E0602828D0702806D0B0F5805F3A
:101620002CD0B0F5005F29D10AE0CB68D1E90121C7
:10163000206800F0F7FE2068816841F0770109E03A
:10164000CB68D1E90121206800F0ECFE20688168B8
:1016500041F48041816011E0CA684968206800F067
:10166000F3FE5021206807E016E0CA684968206848
:1016700000F0FBFE6021206800F0DEFE84F83D50A3
:10168000002084F83C0070BDCA684968206800F0FA
:10169000DBFE40212068EFE7226801461046EBE7B9
:1016A000704770B50446006801694FF00005C943F2
:1016B000890715D4C168C943890711D4E91E01619E
:1016C00001202077206880698007204602D0FFF73C
:1016D000E7FF04E000F098F8204600F096F8257740
:1016E00020680169C943490717D4C168C94349073C
:1016F00013D46FF004010161022020772068806913
:1017000010F4407F204602D0FFF7CAFF04E000F04B
:101710007BF8204600F079F8257720680169C943F5
:10172000090716D4C168C943090712D46FF008012C
:101730000161042020772068C0698007204602D01C
:10174000FFF7AEFF04E000F05FF8204600F05DF820
:10175000257720680169C943C90617D4C168C94300
:10176000C90613D46FF010010161082020772068AA
:10177000C06910F4407F204602D0FFF791FF04E0DB
:1017800000F042F8204600F040F825772068016913
:10179000C943C90708D1C168C943C90704D1891E13
:1017A0000161204600F032F820680169C94309064A
:1017B00009D4C168C943090605D46FF080010161ED
:1017C0002046FFF797FE20680169C943490609D4FE
:1017D000C168C943490605D46FF040010161204644
:1017E00000F030F820680169C94389060BD4C1684C
:1017F000C943890607D46FF0200101612046BDE886
:101800007040FFF778BE70BD704770470B490068A5
:101810000968884211D10A48016B491C016311F122
:10182000020F0AD3002101638160C160016141613F
:101830008161C161016241628162704734010020AF
:10184000040000207047704770B5026804461068B5
:10185000D168536910F00F0F50D003F0010501F467
:10186000907635435DD0C20705D0CA0503D5E26B3B
:1018700042F00102E263420705D5DA0703D0E26BCA
:1018800042F00202E263820705D5DA0703D0E26B79
:1018900042F00402E263020705D5DA0703D0E26BE7
:1018A00042F00802E263E26B002A33D0800604D5DE
:1018B000880602D5204600F051FE20684069E16BA1
:1018C000C0F38010090700D428B3204600F02FFE93
:1018D0002068416949061AD5416921F040014161FA
:1018E000606BA0B11B494163606BFEF797FF002856
:1018F00010D0606B416BBDE870400847830610D57F
:101900008B060ED52046BDE8704000F027BE20466D
:10191000FFF799FF70BD2046FFF795FF0020E063B9
:1019200070BD030606D50B0604D52046BDE8704001
:1019300000F0BCBE4006F3D54806F1D5D16820467C
:1019400021F04001D160202184F8391000F021FA03
:1019500070BD00008F24000870B5040004D094F816
:101960003900002510B106E0012070BD84F8385020
:10197000204600F023F8242084F839002068C1684C
:1019800021F40051C160204600F034FE2068016956
:1019900021F4904101612068416921F02A014161EF
:1019A0002068C16841F40051C160E563202084F8DB
:1019B000390084F83A00002070BD00002DE9F0479E
:1019C00086B0002500950195029503950446DFF841
:1019D0004882D0F800C0914802210322904B202772
:1019E00080264FF4806A4FF01009C44557D1D0F8D3
:1019F00018C04CF4804CC0F818C0D0F818C00CF4D3
:101A0000804CCDF810C0D0F818C04CF0040CC0F8D1
:101A100018C08069039200F0040004900802CDE928
:101A20000001694698461846FFF754F8CDE900A52D
:101A3000694640460295FFF74DF8DFF8EC81794999
:101A40004046C0E90015C0E90256C8F81050C8E980
:101A50000557C8F81C50FEF7D7FF08B1FEF7DCFEAB
:101A6000714FC4F834804437C8F82440C7E902569F
:101A70003D616C487D61BD611438FD61C7E90009B5
:101A80003846FEF7C1FF08B1FEF7C6FE2763002205
:101A9000114625207C62FFF76BFA25205EE0DFF817
:101AA0008C81C4455FD1D0F81CC04CF4003CC0F818
:101AB0001CC0D0F81CC00CF4003CCDF810C0D0F80D
:101AC00018C04CF0040CC0F818C08069039200F0F4
:101AD000040004900420CDE90001694698461846A8
:101AE000FEF7F8FF0820CDE900056946404602955B
:101AF000FEF7F0FFDFF830814A4908F188084046D8
:101B00001431C0E90015C0E90256C8F81050C8E900
:101B10000557C8F81C50FEF777FF08B1FEF77CFEAA
:101B2000414FC4F83480CC37C8F82440C7E9025686
:101B30003D613C487D61BD612830FD61C7E9000918
:101B40003846FEF761FF08B1FEF766FE2763002204
:101B5000114626207C62FFF70BFA2620FFF7FAF9E0
:101B600006B0BDE8F087324B9C45F9D1C36943F418
:101B70008023C361C36903F480230493836943F022
:101B8000080383618069CDE900A100F00800CDE978
:101B90000320DFF8A08069464046FEF79BFF4FF424
:101BA0000060CDE90005694640460295FEF792FFC8
:101BB000DFF884801B4940462839C0E90015C0E998
:101BC0000256C8F81050C8E90557C8F81C50FEF76F
:101BD0001BFF08B1FEF720FE174FC4F834804437CE
:101BE000C8F82440C7E902563D610E487D61BD61D9
:101BF0003C38FD61C7E900093846FEF705FF08B12A
:101C0000FEF70AFE27630022114627207C62FFF7B9
:101C1000AFF92720A2E70000003801400010024081
:101C200000080140580002403402002000440040F7
:101C300000480040000C014044030020F8B5044671
:101C400090F83A0020283CD1C1B3BAB394F83800D8
:101C5000012836D0012084F83800A162A285002531
:101C6000E563222084F83A00636B17489862636B3F
:101C70001648D862636B16481863606B1346456359
:101C80000846666B216802463046091DFEF7EAFEEB
:101C9000206801684168009184F83850C16841F4B7
:101CA0008071C1602068416941F001014161206893
:101CB000416941F0400141610020F8BDFFE701208A
:101CC000FBE70220F9E70000E924000825250008C9
:101CD0009F240008704770472DE9F843044690F8A8
:101CE00039001F4616460D46202850D1A5B19EB199
:101CF00094F8380001284AD0012084F838004FF0C9
:101D00000008C4F83C80212084F83900FEF7DCFF8D
:101D1000A6848146E68426E00120BDE8F883E08CB5
:101D2000401EE084A0684B46B0F5805F4FF0000293
:101D30004FF080012046009703D000F0E8FCE8B99E
:101D40000DE000F0E4FCC8B928882168C0F3080061
:101D50004860206908B16D1C05E0AD1C03E02168F6
:101D600015F8010B4860E08C0028D8D14B460022C2
:101D700040212046009700F0CAFC08B10320CCE7C0
:101D8000202084F8390084F838800020C5E702203C
:101D9000C3E77047FEE700001D4808B5416941F000
:101DA000010141614069002200F0010000901146EC
:101DB0000C20FFF7DDF80C20FFF7CCF800221146CD
:101DC0000D20FFF7D5F80D20FFF7C4F800221146CB
:101DD0000E20FFF7CDF80E20FFF7BCF800221146C9
:101DE0000F20FFF7C5F80F20FFF7B4F800221146C7
:101DF0001020FFF7BDF81020FFF7ACF800221146C5
:101E00001120FFF7B5F8BDE808401120FFF7A2B890
:101E1000001002402DE9F04385B0002429480094C9
:101E2000019402940394816941F0200181618169E8
:101E300001F020010491816941F00401816181690F
:101E400001F004010491816941F008018161806918
:101E5000DFF8748000F0080046F238060490002293
:101E600031464046FEF72BFFDFF860904FF40847FD
:101E7000002239464846FEF722FFF02001258DE872
:101E8000310069464846FEF725FE48F205008DE818
:101E9000310069464046FEF71DFECDE90065022689
:101EA000CDE9024669464046FEF714FE00970396C8
:101EB000CDE9015469464846FEF70CFE05B0BDE881
:101EC000F083000000100240000C014000080140B7
:101ED0000E4810B50C4901600D49416000214FF4D6
:101EE00080428160C0E9031201224261F022C0E910
:101EF000062180210162FEF7EDFE002803D0BDE837
:101F00001040FEF789BC10BD00540040E0000020E6
:101F1000A086010010B586B00024174800940194F3
:101F20000294039404944FF080410594016040F2C0
:101F3000CF21C0E9011442F20F71C0E9031484619A
:101F4000FFF7FBFA08B1FEF767FC4FF480500090F2
:101F500069460948FFF739FB08B1FEF75DFC0494B8
:101F600004A905480594FFF7C7FA002801D0FEF739
:101F700053FC06B010BD0000340100200C4810B521
:101F80000A4901604FF4E1314160002181600C2277
:101F9000C160C0E904128161C161FFF7DDFC002866
:101FA00003D0BDE81040FEF737BC10BD003801403B
:101FB000740100200C4810B50A4901604FF4E1316A
:101FC0004160002181600C22C160C0E9041281617E
:101FD000C161FFF7C1FC002803D0BDE81040FEF747
:101FE0001BBC10BD00440040B40100200C4810B5DB
:101FF0000A4901604FF4E1314160002181600C2207
:10200000C160C0E904128161C161FFF7A5FC00282D
:1020100003D0BDE81040FEF7FFBB10BD00480040F4
:10202000F4010020FEE770472DE9FF5F8C4D4FF073
:1020300000088C4E85F8038044464FF0020B0127C0
:10204000687809283ED2DFE800F0050C171C22272B
:102050002C313600305D592806D16F708DF80400A0
:1020600030E0305D592802D085F801802AE08DF8F3
:10207000050085F801B025E0305D8DF806000320ED
:1020800003E0305D8DF80700042068701AE0305DD1
:102090008DF808000520F8E7305D8DF8090006206E
:1020A000F3E7305D8DF80A000720EEE7305D8DF82C
:1020B0000B000820E9E701A800F0F9FF315D884234
:1020C00000D1EF70641CE4B2092CB9D3E878DFF8D2
:1020D00098A1DFF89891664C002803D1287800F188
:1020E00001002870464685F8018034D128780128FF
:1020F00079D904215046FEF7DDFD01465DA000F0D0
:102100004DFB2878A846642801D988F800B004213E
:102110005046FEF7CFFD002848460BD0C0F8BC71F2
:10212000C4F89061C4F88C61C4F8B871C4F8B461A3
:1021300053A00AE0C0F8BC61C4F89061C4F88C7187
:10214000C4F8B861C4F8B47151A000F027FB98F846
:102150000300002876D0EE702878A84620B188F8D1
:102160000060D8F82C500DE09DF806009DF807108F
:1021700000EB0120FEF736F84A49FDF7F5FF05466A
:10218000C8F82C0004215046FEF794FD83462846EB
:10219000FEF72DF802460B4643A0CDF800B000F044
:1021A000FDFA04215046FEF785FDE8B34448854218
:1021B0001ADCD8F83010D8F80800081A062810D908
:1021C000274808300160C9F8BC61C4F89071C4F8B0
:1021D0008C61D4F8B80180F00100C4F8B801C4F8EB
:1021E000B46138A02CE02DE035483949C04328447B
:1021F00088421AD2D8F83010D8F82800081A0628D1
:1022000010D9174828300160C9F8BC61D4F8900192
:1022100080F00100C4F89001C4F88C61C4F8B87172
:10222000C4F8B4612BA00BE00EE0C9F8BC71C4F88F
:102230009061C4F88C61C4F8B871C4F8B46129A085
:1022400000F0ACFABDE8FF9FC9F8BC61C4F890612A
:10225000C4F88C71C4F8B861C4F8B47126A0EFE773
:1022600004000020C3000020000C014000002142B7
:102270000080214273697463683A25640A00000093
:102280006F75742067657220696E207265640A003C
:102290006F75742079656C6C6F7720696E2072653C
:1022A000640A00000000C84264697374616E63656B
:1022B0003D25662073697463683A25640A0000004E
:1022C00052B89E3E6F6B203C20302E33200A000017
:1022D00013AEC7006F6B2020302E337E302E392096
:1022E0000A0000006F6B20206E6F6E6520736974AA
:1022F000636820310A0000006F6B20206E6F6E65EE
:1023000020736974636820300A00000070477047CA
:10231000FEF7C8BD30B58FB028216846FDF719FF1C
:1023200014210AA8FDF715FF01210804CDE90010CA
:102330000024029402250491CDE907504FF4E010E7
:1023400009906846FEF732FF0F20CDE90A056802C2
:10235000CDE90C4002210AA80E94FEF73BFE0FB017
:1023600030BD00000D48016841F001010160416885
:102370000B4A1140416001680A4A1140016001683E
:1023800021F480210160416821F4FE0141604FF495
:102390001F0181600449C0030860704700100240BB
:1023A0000000FFF8FFFFF6FE08ED00E00148FFF730
:1023B00078B9000034010020F0B50268164B174CC4
:1023C000174D4FF08047984205D0B84203D0A04245
:1023D00001D0A84203D122F070064A6832439842E5
:1023E00005D0B84203D0A04201D0A84203D122F4C4
:1023F0004074CA6822434C6922F080022243026082
:102400008A68C2620A688262984201D109690163DE
:1024100001214161F0BD0000002C0140000400409A
:102420000008004010B5846842EA032224F47F4487
:102430000A432243826010BD826822F070020A4380
:1024400042F007018160704710B5036A046A24F006
:1024500001040462846924F0F00444EA021423F0C5
:102460000A020A438461026210BD10B5036A23F0B8
:10247000100303628369046A23F4704343EA02325F
:1024800024F0A00343EA01118261016210BD10B57E
:10249000406A0021C185C184FFF7D5F910BD70B530
:1024A000446A2068406994F83910C0F3C0100025D0
:1024B000212904D118B1E584204600F046F82068AF
:1024C000406994F83A10C0F38010222904D118B161
:1024D000E585204600F02BF8E06B40F01000E0634B
:1024E0002046FFF7B0F970BD10B50146406A096893
:1024F0000968890613D40021C1850168CA6822F4DD
:102500008072CA6001684A6922F001024A6101686A
:102510004A6922F040024A61202180F83A10FFF710
:10252000D9FB10BD10B5406AFFF7D5FB10BD01689F
:10253000CA6822F49072CA6001684A6922F00102F6
:102540004A61202180F83A1070470168CA6822F079
:10255000C002CA60202180F83910704710B590F889
:102560003A10222901D0022010BD8168B1F5805FA8
:1025700011D00169002901681FD0496801F07F036B
:10258000816A4A1C82620B70C18D491E0904090CC4
:10259000C18518D02BE00269816A002A026852685E
:1025A00005D0D2B20A80816A491C8162ECE7C2F38D
:1025B00008020A80816A891CF7E74A68816A4B1C15
:1025C00083620A70E0E70168CA6822F02002CA60EC
:1025D0000168CA6822F48072CA6001684A6922F000
:1025E00001024A61202180F83A10FFF773FB0020B6
:1025F00010BD00002DE9F041044600680169E26861
:1026000021F44051114301612169A06808436169C7
:1026100008432168CA6841F20C639A430243CA60C6
:1026200020684169A26921F44071114341611E494A
:10263000206864253226884202D1FEF771FD01E050
:10264000FEF75EFD00EBC00101EB001160686FF06A
:1026500018078000B1FBF0F2B2FBF5F2B1FBF0F32A
:102660007A4303EB8202B1FBF0F306EB0212B2FBFA
:10267000F5F2B3FBF5F302F0F00202EB0312B1FB4B
:10268000F0F3B1FBF0F0B0FBF5F0784303EB800022
:1026900006EB0010B0FBF5F0216800F00F001044CD
:1026A0008860BDE8F08100000038014090F83910E2
:1026B000212901D0022070478168B1F5805F016A4D
:1026C0000BD04A1C0262026809785160C18C491E15
:1026D0000904090CC1840ED017E009880268C1F30F
:1026E0000801516001690029016A02D0491C016298
:1026F000ECE7891CFBE70168CA6822F08002CA6027
:102700000068C16841F04001C160002070472DE9B8
:10271000F041984617460E460446069D1DE0681C8B
:102720001BD02DB1FEF7D0FAA0EB0800A84214D9B7
:102730002068C16821F4D071C1602068416921F02E
:1027400001014161202084F8390084F83A0000201A
:1027500084F838000320BDE8F0812068006836EA7C
:10276000000004D00020B842D9D00020F3E70120B7
:10277000F9E700000148FFF767B800007401002086
:102780000148FFF761B80000B40100200148FFF7DD
:102790005BB80000F4010020FEE700000FB4054B19
:1027A00010B503A9044A029800F0EAF810BC5DF8DD
:1027B00014FB000019310008A40000200907090ECD
:1027C000002804DB00F1E02080F80014704700F0DE
:1027D0000F0000F1E02080F8141D704702E008C8E7
:1027E000121F08C1002AFAD170477047002001E08B
:1027F00001C1121F002AFBD1704700002DE9FF5FC5
:1028000082B00021DDE90430020DDDF840B0034361
:1028100018D044F61050A2F2FF324243151411981A
:1028200001281FD0A5EB0B00401C5FEA000A4FF007
:1028300000064E4FDFF83891B046504615D5CAF124
:10284000000413E0119801244AA3012801D16FEA82
:102850000B010298119AC0E90031C0E9024206B0AA
:10286000BDE8F09FCBF10000DFE704460021404ABD
:10287000491842EB0450CDE9001012E0E00707D000
:1028800032463B4640464946FDF7E9FD80468946CB
:1028900032463B4610461946FDF7E1FD06460F4617
:1028A0006410002CEAD1DDE90401DDE90023BAF16E
:1028B000000F06DAFDF7D3FD42464B46FDF7CFFD8C
:1028C00005E0FDF73EFE42464B46FDF73AFE044664
:1028D0000E460022284BFDF7BBFE03D84FF0FF3019
:1028E000014607E00022254B20463146FDF710FD4A
:1028F000FDF796FE102409E0002C0ADB0A220023D3
:10290000FDF79EFC039B30321A55641E50EA01020B
:10291000F2D1641C039AC4F111031444119A012AE0
:1029200003D0012208430DD10AE0084304D000205F
:102930004FF0110B119072E7A3EB0B056D1E0DE02C
:102940005B4504DD4FF0000205F1010504E003DA08
:102950004FF00002A5F10105002AECD00298119970
:10296000C0E90231C0E9004579E7000000001440E9
:102970000000F03F300000000000F0430000E03FA6
:102980002DE9FF4F95B09B468946064600250FE28C
:10299000252877D100242746F84A0121059400E034
:1029A000044316F8013F203B01FA03F01042F7D12F
:1029B00030782A2811D06FF02F033078A0F1300240
:1029C000092A16D8059A44F0020402EB820203EBAE
:1029D00042021044761C0590EFE759F8042B05924B
:1029E000002A03DA504244F40054059044F00204F3
:1029F000761C30782E2816D116F8010F44F0040406
:102A00002A280DD06FF02F023078A0F13003092B67
:102A100009D807EB870302EB4303C718761CF3E7DB
:102A200059F8047B761C30786C280FD006DC4C28D3
:102A300017D068280DD06A2814D104E0742810D06B
:102A40007A280FD10DE044F400140AE044F4801415
:102A500001E044F440147278824202D104F58014FB
:102A6000761C761C307866280BD013DC582877D07B
:102A700009DC002875D04528F6D04628F4D0472830
:102A80001AD19DE118E0632835D0642879D06528F3
:102A900012D195E1702873D008DC6728F1D069283D
:102AA0006FD06E280DD06F2806D1B5E073282CD0DA
:102AB000752875D0782874D05A46179990476D1CA0
:102AC00075E1C4F30250022809D003280DD0D9F8CB
:102AD000001004280DD00D6009F1040967E1D9F850
:102AE0000010EA17C1E90052F6E7D9F800100D808E
:102AF000F2E70D70F0E719F8041B8DF800100020C4
:102B00008DF80100EA46012003E059F804AB4FF0CC
:102B1000FF3061074FF0000102D40DE008F1010120
:102B20008846B9420FDA8045F8DB1AF80810002908
:102B3000F4D108E008F1010188468142FADB1AF875
:102B400008100029F6D105985B46A0EB080721463E
:102B50003846179A00F094FA284400EB080507E07D
:102B60004DE029E10DE01AF8010B5A4617999047FC
:102B7000B8F10108F7D25B4621463846179A13E1AF
:102B800042E00A220092C4F302524FF0000A022AE5
:102B900008D059F804CB032A4FEAEC710AD00DE0B3
:102BA00029E02AE009F1070121F00702F2E802C159
:102BB000914609E00FFA8CFC4FEAEC71042A03D12C
:102BC0004FFA8CFC4FEAEC71002907DA0A46002123
:102BD000DCF1000C61EB02012D2202E0220504D59C
:102BE0002B228DF80420012203E0E20701D02022ED
:102BF000F7E7904659E00A2102E010220DE010218B
:102C00004FF0000A00910BE010224FF0000A44F050
:102C100004040827009203E008224FF0000A009203
:102C2000C4F30252022A05D059F804CB0021032A2A
:102C300008D009E009F1070121F00702F2E802C11A
:102C4000914605E01FFA8CFC042A01D10CF0FF0C20
:102C50004FF00008220728D5702806D0009B83F08B
:102C6000100353EA0A0305D00EE040228DF8042039
:102C7000012208E05CEA010206D030228DF804202F
:102C80008DF8050002229046009B83F0080353EA6A
:102C90000A030AD15CEA010201D1620705D530229C
:102CA0008DF804204FF001087F1E582804D034A06E
:102CB00003900EA802900DE036A0F9E75346604657
:102CC000009AFDF7BDFA84460398825C0298401E84
:102CD000029002705CEA0100F0D1029806A9081A7D
:102CE00000F1200A600702D524F4803400E00127B7
:102CF000574502DDA7EB0A0000E0002000EB0A01C7
:102D0000009005984144401A0590E00306D45B46C4
:102D10002146179A059800F0B3F90544002706E00C
:102D200001A85A46C05D179990476D1C7F1C474506
:102D3000F6DBE0030CD55B462146179A059800F0B8
:102D40009FF9054404E030205A46179990476D1CBE
:102D50000099481E00900029F5DC08E002980299CD
:102D60005A460078491C0291179990476D1CBAF198
:102D70000001AAF1010AF1DC65E100000928010067
:102D800030313233343536373839616263646566E1
:102D900000000000303132333435363738394142A3
:102DA000434445460000000000F058F90544761CF5
:102DB000307800287FF4ECAD19B02846BDE8F08FDC
:102DC000620700D4062709F1070222F0070CFCE88D
:102DD0000223E14603F000485FEA080C02D00FF23C
:102DE000702C0DE05FEA045C02D50FF2682C07E05E
:102DF0005FEAC47C02D00FF2602C01E0AFF2700CED
:102E00004FF0FF3823F00043CDF850C065280CD0B8
:102E100006DC452809D046281DD047283DD13DE095
:102E2000662818D067287ED138E00021112F01DBF9
:102E3000112000E0781CCDE9000106A90EA8FFF7DB
:102E4000DDFCDDE90F010E9A03910021009207F1EC
:102E5000010A04914DE04FF000400097CDE90110C8
:102E600006A90EA8FFF7CAFCDDE90F0203920E9B2C
:102E700011990022DDF80CA00093049211B9791C7D
:102E800000EB010AB7EB0A0004D4C0F1FF3007F1F0
:102E9000010A0490AAEB0700019044E0012F00DA38
:102EA00001270021112F01DD112000E03846CDE976
:102EB000000106A90EA8FFF7A1FCDDE90F010E9A9B
:102EC0000391002104910092BA4621070CD4039982
:102ED000514500DA8A46BAF1010F05DD009AAAF1E0
:102EE0000101515C302908D0B84202DA10F1040F18
:102EF00006DA0121CDE9011015E0AAF10101E9E7A7
:102F0000002805DC049901440491AAEB000102E0C9
:102F1000411C514500DD8A460499401A401C01902D
:102F20004FF000400290200704D40198504501DB87
:102F3000CDF8048000208DF84F0002980DF14F0766
:102F4000B0F1004F25D02B200E9002984FF00208D0
:102F500000280CDA404202902D200E9007E00A2152
:102F60000298FDF757F93031029007F8011DB8F1CA
:102F70000001A8F10108F2DC02980028EFD1791EC7
:102F80000E980870307800F0200040F0450007F8F7
:102F9000020D12A8C01B00F107081498007800B1B8
:102FA000012000EB0A01019801EBE0710598414412
:102FB000401A401E0590E00306D45B462146179A4E
:102FC000059800F05DF805441498007818B15A4649
:102FD000179990476D1CE00324D55B462146179A4C
:102FE000059800F04DF805441CE00498002807DB24
:102FF000DDE90301884203DD0098405C179901E098
:10300000179930205A469047049805F10105401C55
:1030100004900198401E019004D12E205A46179921
:1030200090476D1CBAF10001AAF1010ADDDC05E050
:1030300017F8010B5A46179990476D1CB8F100011B
:10304000A8F10108F4DC5B462146179A0598ABE627
:103050002D0000002B000000200000002DE9F041B1
:10306000044600251E461746880404D405E0394668
:103070002020B0476D1C641EF9D52846BDE8F081BC
:103080002DE9F041044600251E469046C80301D5AF
:10309000302700E02027880404D505E04146384663
:1030A000B0476D1C641EF9D52846BDE8F0810022AA
:1030B0001146435C491CC9B21A440829F9D3D0B25D
:1030C000704700004FF0E0210A6922F004020A6113
:1030D0000649C00800EB40020870C2EBC0104FF672
:1030E000FF7202EAC0004880704700000000002024
:1030F0000849498848434FF0E02148610020886131
:1031000001220A610A69D30701D0D203FAD5086106
:10311000886170470000002013B54FF47A730122D4
:1031200069460248FEF7D8FD01201CBD740100204D
:10313000FDF7C0FEFFF7EEF8FEF76CFEFEF72CFE83
:10314000FEF7C6FEFEF71AFFFEF734FFFEF74EFF4E
:10315000FEF7E0FE4820FFF7B5FF4FF4FA70FFF7E7
:10316000C7FF0C48FEF720FA05220B490B48FEF773
:1031700065FD1B220A490B48FEF760FD08491B222A
:103180001B310948FEF75AFDFEF74EFF5020FFF7AE
:10319000AFFFF9E734010020700000207401002027
:1031A000A8000020B4010020F4010020000000006D
:1031B00000000000010203040607080900000000E7
:1031C00001020304E431000800000020A800000010
:1031D000DC2700088C320008A80000202807000027
:1031E000EC270008000000000000000000000000C4
:1031F00000000000000000000000000000000000CF
:1032000000000000000000000000000000000000BE
:1032100000000000000000000000000000000000AE
:10322000000000000000000000000000000000009E
:10323000000000000000000000000000000000008E
:10324000000000000000000000000000000000007E
:10325000000000000000000000012C005A001E00C9
:1032600096005A003C001E003C005A001E009600CA
:103270005A003C001E000000010000001000000089
:0C328000000000000024F400000000002A
:04000005080000ED02
:00000001FF
