:020000040800F2
:10000000380B002001010008C3170008691500081B
:10001000C11700086D010008051E0008000000005F
:10002000000000000000000000000000B5190008FA
:10003000E301000800000000C5170008B719000818
:100040001B0100081B0100081B0100081B01000820
:100050001B0100081B0100081B0100081B01000810
:100060001B0100081B0100081B0100081B01000800
:10007000710100087D010008890100089501000850
:10008000A1010008AD0100081B0100081B010008C8
:100090001B0100081B0100081B0100081B010008D0
:1000A0001B0100081B0100081B0100081B010008C0
:1000B0001B0100081B0100081B0100081B010008B0
:1000C0001B0100081B0100081B0100081B010008A0
:1000D0001B010008E11D0008ED1D0008F91D0008C6
:1000E0001B0100081B0100081B010008DFF80CD0F1
:1000F00000F02AF8004800476D1E0008380B002069
:100100000648804706480047FEE7FEE7FEE7FEE7B1
:10011000FEE7FEE7FEE7FEE7FEE7FEE7091A000856
:10012000ED000008D2B201E000F8012B491EFBD21D
:1001300070470022F6E710B513460A4604461946F2
:10014000FFF7F0FF204610BD064C074D06E0E068C3
:1001500040F0010394E8070098471034AC42F6D30E
:10016000FFF7C8FF141F0008341F0008FEE7000057
:10017000014800F085B80000F4020020014800F0BA
:100180007FB80000B0020020014800F079B80000FC
:10019000E4010020014800F073B80000A001002035
:1001A000014800F06DB8000028020020014800F06E
:1001B00067B800006C02002030B590F84050012470
:1001C000AC40C56B6C60046863604368102B0368C7
:1001D00003D099600068C26030BD9A600068C16059
:1001E00030BD70477047000010B590F82110002412
:1001F000022903D00421816301243DE001680A68DB
:1002000022F00E020A6001680A6822F001020A6008
:100210001A4A0168914201D1012121E0174A1432A2
:10022000914201D110211BE0144A2832914201D1A0
:10023000891515E0114A3C32914201D189140FE031
:100240000E4A5032914202D14FF4803108E00B4AFD
:100250006432914202D14FF4801101E04FF080717D
:10026000064A083A5160012180F82110002180F8E7
:100270002010416B01B18847204610BD08000240A4
:100280002DE9F05FC16B0C6801680B68D0F840C0C5
:10029000042202FA0CF2494DDFF824A1494E4A4FDC
:1002A000DFF828B1DFF828E122422CD05A072AD5FE
:1002B0000A68920603D40A6822F004020A60016800
:1002C000A94201D1042219E0514501D1402215E093
:1002D000B14202D14FF4806210E0B94202D14FF432
:1002E00080420BE0594502D14FF4802206E071456F
:1002F00002D14FF4800201E04FF080622F490839AB
:100300004A60C16A3BE04FF0020808FA0CF818EAAC
:10031000040F4FF000094FF0010235D05FEA8378F7
:1003200032D50B689B0605D40B6823F00A030B60DB
:1003300080F821200168A94201D1022219E051452B
:1003400001D1202215E0B14202D14FF4007210E039
:10035000B94202D14FF400520BE0594502D14FF49B
:10036000003206E0714502D14FF4001201E04FF077
:100370000072124908394A6080F82090816A002989
:100380001AD0BDE8F05F0847082505FA0CF52542AC
:1003900012D01B0710D50B6823F00E030B6090F8EA
:1003A0004010C36B02FA01F15960826380F821208A
:1003B00080F82090016BE2E7BDE8F09F0800024062
:1003C0001C0002403000024044000240580002403D
:1003D0006C00024030B528B308C8134914221944F0
:1003E000B1FBF2F18900C1631049816302214177B9
:1003F0001A6843F6F0718A43D0E900142143D0E92A
:1004000002452C4321430469214344692143846903
:100410002143114319600021416301224277017792
:10042000084630BD012030BDF8FFFDBF000002408E
:1004300070B5044690F82000002501280CD001205A
:1004400084F8200094F821600020012E06D084F862
:1004500020000225284670BD022070BD022684F8C7
:100460002160A0632068066826F001060660204629
:10047000FFF7A2FEE06A00282068016802D041F080
:100480000E0106E021F0040101602068016841F0DE
:100490000A0101602068016841F001010160D9E7AB
:1004A0002DE9F84FDFF8B891002409F1040A0AF1A8
:1004B000040B23460F270BF1040EC9E00125A540CC
:1004C0002A40AA427DD1674ED1F804C0ACEB0608A1
:1004D000B44532D014DCBCF1030F3AD009DCBCF1D6
:1004E000000F2AD0BCF1010F1CD0BCF1020F31D19A
:1004F0001DE0BCF1110F17D0BCF1120F2AD119E089
:10050000B8F5881F19D006DCB8F5803F15D0B8F5CE
:10051000801F1FD111E0B8F5001F0ED0B8F5041FE1
:1005200018D10AE0CB6815E0CB681B1D12E0CB6840
:1005300008330FE0CB680C330CE08B682BB1012B38
:100540004FF0080303D0456104E0042302E0056195
:1005500000E00023FF2A01D8064601E000F104066E
:100560004FEA840501D9A5F12005D6F8008007FAE5
:1005700005FC28EA0C0803FA05F548EA0508C6F860
:1005800000804D68ED0062D5374DAE6946F001063A
:10059000AE61AD6924F0030605F001050095334D09
:1005A00006EB050CDCF80850A607360F07FA06F82C
:1005B00025EA0805DFF8B880404503D14FF0000870
:1005C00017E044E0DFF8AC80404502D14FF001086D
:1005D0000FE0DFF8A480404502D14FF0020808E0A8
:1005E000DFF89880404502D14FF0030801E04FF05A
:1005F000040808FA06F848EA0508CCF808804D68AF
:10060000D9F80060ED034D4601D5164300E096434E
:100610002E604D68DAF80060AD03554601D51643EB
:1006200000E096432E604D68DBF80060ED025D4609
:1006300001D5164300E096432E604D68DEF8006059
:10064000AD02754601D5164300E096432E60641C4A
:100650000D682A46E5407FF431AFBDE8F88F000011
:100660000004014000001110001002400000014091
:1006700000080140000C014000100140001401403E
:100680000AB1016170470904FBE700000148806876
:10069000704700000C00002070B504001BD094F8D7
:1006A0003D00002520B984F83C50204600F0AEF80B
:1006B000242084F83D002068016821F001010160D8
:1006C00000F000FA4D4A6168914201D84C4900E0BF
:1006D0004C49884201D2012070BD4B492368B0FBD0
:1006E000F1F15E6826F03F060E435E606368934258
:1006F00006D94FF4967359434FF47A73B1FBF3F173
:100700002368491C1E6A26F03F063143196261685E
:10071000914210D84900401EB0FBF1F2521CC2F3C6
:100720000B02042A01D2042022E0B0FBF1F0401CAD
:10073000C0F30B001CE0A368F3B301EBC10202EBB2
:100740000116421EB2FBF6F2521C42F48042120520
:1007500049D093B301EBC10202EB0111401EB0FB83
:10076000F1F0401CC0F30B0040F4804040F4004026
:100770002168CA694CF6FF739A431043C861D4E9F3
:100780000701084321680A6822F0C002104308608C
:10079000D4E9030101432068826848F2FF339A4399
:1007A00011438160D4E9050108432168CA6822F039
:1007B000FF021043C86001E00EE016E02068016807
:1007C00041F0010101602564202084F83D0025638B
:1007D00084F83E50002070BD01EB4106421EB2FB82
:1007E000F6F2521CB3E70120C2E701EB4101401EC3
:1007F000B0FBF1F0401CC0F30B00B7E7A08601008E
:1008000080841E0000093D0040420F0010B586B0F4
:100810000021009101910291039100680F498842E3
:100820001AD10F4CA06940F00800A061A069694688
:1008300000F008000490C0200090122001900320D6
:1008400003900848FFF72CFEE06940F40010E061D7
:10085000E06900F40010049006B010BD00540040A0
:1008600000100240000C01400248816802781144E7
:10087000816070470C000020074810B5016841F006
:1008800010010160032000F075F8002000F006F868
:1008900000F024F8002010BD0020024070B50D4D7E
:1008A00004464FF47A712878B1FBF0F00A490968E0
:1008B000B1FBF0F000F0ECFA48B9102C07D200229E
:1008C0002146501E00F036F800206C6070BD0120FB
:1008D00070BD00000C000020180000200C4808B576
:1008E000816941F001018161816901F0010100919B
:1008F000C16941F08051C161C06900F08050009031
:100900000448416821F0E06141F00071416008BD98
:100910000010024000000140002809DB00F01F0227
:10092000012191404009800000F1E020C0F8001151
:1009300070470000F0B40E4B1B680C46C3F3022353
:10094000C3F10705042D00D90425191D072901D27B
:10095000002300E0DB1E012606FA05F1491E2140B6
:1009600099409E40761E16403143F0BC01F04BBAD0
:100970000CED00E0064900F0070208684FF6FF039F
:10098000184040EA0220034A104308607047000004
:100990000CED00E00000FA052DE9F0470F460500D8
:1009A00061D0434E306800F00700B84209D2306889
:1009B00020F0070038433060306800F00700B8428C
:1009C00051D128683B4C810712D5400703D5606898
:1009D00040F4E06060602878000703D5606840F468
:1009E000605060606068A96820F0F00008436060B3
:1009F0002878C00728D06868012810D0216802280C
:100A000010D0890700292EDA616821F00301014323
:100A10006160FFF73BFE804641F288390DE02168B6
:100A20008903EFE78901EDE7FFF730FEA0EB08014E
:100A3000494502D90320BDE8F0876068696800F085
:100A40000C00B0EB810FEFD1306800F00700B84226
:100A50000BD9306820F0070038433060306800F070
:100A60000700B84201D00120E5E72878400705D506
:100A70006068E96820F4E060084360602878000757
:100A800006D56068296920F4605040EAC1006060C2
:100A900000F038F86168084AC1F30311515CC8409E
:100AA0000649086006480068FFF7F8FE0020C2E724
:100AB0000020024000100240FC1E00081800002028
:100AC000100000200448054900684968044AC1F341
:100AD0000221515CC84070471800002000100240FD
:100AE0000C1F00080448054900684968044AC1F31E
:100AF000C221515CC840704718000020001002401D
:100B00000C1F000812A185B00FC98DE80F0014A0BA
:100B1000144A006804905168134801F00C03042B38
:100B200010D0082B0ED1C1F38343C9031DF8030075
:100B30000AD5516804AAC1F34041515C0A4A5043A6
:100B4000B0FBF1F005B0704708494843FAE70000F0
:100B500002030405060708090A0B0C0D0E0F1010FE
:100B6000010200000010024000127A0000093D005E
:100B70002DE9F84F040070D02078C04DC00749D04F
:100B80006868C0F38100012807D06868C0F381005D
:100B9000022809D16868C00306D52868800339D5C2
:100BA00060680028E7D035E06068B0F5803F0BD082
:100BB00010B1B0F5A02F11D0286820F48030286043
:100BC000286820F4802002E0286840F48030286003
:100BD000606890B1FFF75AFD06460AE0286840F4C5
:100BE00080202860F0E700BFFFF750FD801B6428DD
:100BF00073D828688003F7D50CE0FFF747FD064659
:100C000005E000BFFFF742FD801B6428F0D828688C
:100C10008003F7D420789A4E80074FF001094FF0F7
:100C2000000839D5686810F00C0F07D06868C0F369
:100C30008100022809D16868C00306D428688007AB
:100C400014D52069012808D110E02069B0B1C6F898
:100C50000090FFF71BFD074605E00AE1FFF716FDD0
:100C6000C01B0228C4D828688007F7D528686169A6
:100C700020F0F80040EAC10028600DE0C6F80080CE
:100C8000FFF704FD074604E0FFF700FDC01B022844
:100C900023D828688007F7D4207800072CD5794816
:100CA000A169D9B1C0F80090FFF7F0FC074604E055
:100CB000FFF7ECFCC01B02280FD8686A8007F7D545
:100CC00071484FF4FA510068B0FBF1F0009000BF9A
:100CD0000098411E0091FAD20EE080E0C0F800803A
:100CE000FFF7D4FC074604E0FFF7D0FCC01B022846
:100CF00075D8686A8007F7D42078400760D5E8691E
:100D00000027C00008D4E86940F08050E861E86935
:100D1000012700F0805000905C480168C90513D499
:100D20000168834641F480710160FFF7AFFC8246A1
:100D300006E000BFFFF7AAFCA0EB0A0064284ED82B
:100D4000DBF80000C005F5D5E06801280AD008B13D
:100D5000052813D0286A20F001002862286A20F0B4
:100D6000040002E0286A40F001002862E06841F2D5
:100D7000883B98B1FFF78AFC82460BE0286A40F076
:100D800004002862EEE700BFFFF780FCA0EB0A0139
:100D900059455AD8286A8007F6D50CE0FFF776FC4B
:100DA000824605E0FFF772FCA0EB0A0159454CD8DA
:100DB000286A8007F6D41FB1E86920F08050E86106
:100DC000E06988B36968C1F38101022944D002282F
:100DD000C6F8608004D0FFF759FC044638E034E0E0
:100DE000FFF754FC074604E0FFF750FCC01B022845
:100DF0002BD828688001F7D4206AB0F5803F05D150
:100E00006868A16820F4003008436860D4E90801EC
:100E10000843696821F4741108436860C6F860905B
:100E2000FFF734FC044606E025E000BFFFF72EFC88
:100E3000001B022809D828688001F7D51BE000BFF5
:100E4000FFF724FC001B022802D90320BDE8F88F1D
:100E500028688001F4D40EE00128F7D06868226A7F
:100E600000F48031914204D1616A00F4701088422C
:100E700001D00120EAE70020E8E70000001002406E
:100E800000004242800442421800002000700040EE
:100E900010B5401EB0F1807F01D3012010BD4FF08E
:100EA000E02460610F21601700F0ADFF0020A06119
:100EB00007202061002010BD70B590F83C20012A69
:100EC00019D0012400F83C4F0222427050F83C3CFB
:100ED0005A689D6822F070060A684968324325F016
:100EE000800529435A6050F83C2C916044700021E1
:100EF0000170084670BD022070BD10B5040003D01B
:100F000094F83D0010B107E0012010BD002084F8E6
:100F10003C00204600F00CF8022084F83D00211D22
:100F2000206800F095FD012084F83D00002010BDF0
:100F300008B50068B0F1804F08D10548C16941F09B
:100F40000101C161C06900F00100009008BD00000E
:100F50000010024070B5044690F83C00012817D0FC
:100F6000012584F83C50022084F83D002068826806
:100F700022F0770222F47F4282600868502830D045
:100F80000DDC20284DD005DC98B310283BD148E07B
:100F9000022070BD302844D0402834D139E0602888
:100FA00028D0702806D0B0F5805F2CD0B0F5005F57
:100FB00029D10AE0CB68D1E90121206800F07EFD4B
:100FC0002068816841F0770109E0CB68D1E901210F
:100FD000206800F073FD2068816841F480418160E1
:100FE00011E0CA684968206800F07AFD5021206845
:100FF00007E016E0CA684968206800F082FD6021B9
:10100000206800F065FD84F83D50002084F83C0025
:1010100070BDCA684968206800F062FD4021206800
:10102000EFE7226801461046EBE7704770B50268AB
:1010300004461068D168536910F00F0F50D003F0C8
:10104000010501F4907635435DD0C20705D0CA058D
:1010500003D5E26B42F00102E263420705D5DA07ED
:1010600003D0E26B42F00202E263820705D5DA07A1
:1010700003D0E26B42F00402E263020705D5DA070F
:1010800003D0E26B42F00802E263E26B002A33D045
:10109000800604D5880602D5204600F0C7FD2068EA
:1010A0004069E16BC0F38010090700D428B32046E3
:1010B00000F0A5FD2068416949061AD5416921F073
:1010C00040014161606BA0B11B494163606BFFF758
:1010D0008BF8002810D0606B416BBDE8704008476A
:1010E000830610D58B060ED52046BDE8704000F073
:1010F0009DBD2046FFF799FF70BD2046FFF795FF85
:101100000020E06370BD030606D50B0604D520461B
:10111000BDE8704000F032BE4006F3D54806F1D578
:10112000D168204621F04001D160202184F8391097
:1011300000F018FA70BD0000271B000870B504000D
:1011400004D094F83900002510B106E0012070BDEC
:1011500084F83850204600F023F8242084F8390021
:101160002068C16821F40051C160204600F0AAFD4A
:101170002068016921F4904101612068416921F0F2
:101180002A0141612068C16841F40051C160E563F2
:10119000202084F8390084F83A00002070BD000057
:1011A0002DE9F04786B0002500950195029503953D
:1011B0000446DFF84882D0F800C09148022103229B
:1011C000904B202780264FF4806A4FF01009C445C9
:1011D00057D1D0F818C04CF4804CC0F818C0D0F8E3
:1011E00018C00CF4804CCDF810C0D0F818C04CF0EA
:1011F000040CC0F818C08069039200F00400049049
:101200000802CDE90001694698461846FFF748F9FB
:10121000CDE900A5694640460295FFF741F9DFF8A0
:10122000EC8179494046C0E90015C0E90256C8F88A
:101230001050C8E90557C8F81C50FFF7CBF808B1A3
:10124000FEF7D0FF714FC4F834804437C8F824400B
:10125000C7E902563D616C487D61BD611438FD618E
:10126000C7E900093846FFF7B5F808B1FEF7BAFF3D
:1012700027630022114625207C62FFF75BFB2520B7
:101280005EE0DFF88C81C4455FD1D0F81CC04CF41F
:10129000003CC0F81CC0D0F81CC00CF4003CCDF8D9
:1012A00010C0D0F818C04CF0040CC0F818C0806909
:1012B000039200F0040004900420CDE90001694687
:1012C00098461846FFF7ECF80820CDE90005694676
:1012D00040460295FFF7E4F8DFF830814A4908F10B
:1012E000880840461431C0E90015C0E90256C8F824
:1012F0001050C8E90557C8F81C50FFF76BF808B143
:10130000FEF770FF414FC4F83480CC37C8F8244052
:10131000C7E902563D613C487D61BD612830FD61F1
:10132000C7E900093846FFF755F808B1FEF75AFF3C
:1013300027630022114626207C62FFF7FBFA262055
:10134000FFF7EAFA06B0BDE8F087324B9C45F9D1C9
:10135000C36943F48023C361C36903F48023049306
:10136000836943F0080383618069CDE900A100F03F
:101370000800CDE90320DFF8A08069464046FFF76A
:101380008FF84FF40060CDE90005694640460295AC
:10139000FFF786F8DFF884801B4940462839C0E90A
:1013A0000015C0E90256C8F81050C8E90557C8F83A
:1013B0001C50FFF70FF808B1FEF714FF174FC4F8E1
:1013C00034804437C8F82440C7E902563D610E48CE
:1013D0007D61BD613C38FD61C7E900093846FEF713
:1013E000F9FF08B1FEF7FEFE276300221146272011
:1013F0007C62FFF79FFA2720A2E700000038014037
:10140000001002400008014058000240A0010020E6
:101410000044004000480040000C0140B0020020A1
:10142000F8B5044690F83A0020283CD1C1B3BAB3CD
:1014300094F83800012836D0012084F83800A162E1
:10144000A2850025E563222084F83A00636B1748E3
:101450009862636B1648D862636B16481863606BBA
:10146000134645630846666B216802463046091DEF
:10147000FEF7DEFF206801684168009184F838506B
:10148000C16841F48071C1602068416941F0010187
:1014900041612068416941F0400141610020F8BD8F
:1014A000FFE70120FBE70220F9E70000811B0008AD
:1014B000BD1B0008371B00080649884208D10648B2
:1014C0000078012804D108220349044800F0E2B959
:1014D00070470000E00000200000002000F000083D
:1014E0007047000070B5044690F83900202830D1CC
:1014F00069B362B394F8380001282AD0012084F837
:1015000038002162A284E2840025E563212084F86A
:101510003900236B10489862236B1048D862236B04
:101520000F481863206B134645632668206B321DF5
:10153000FEF77EFF21686FF04000086084F83850A5
:101540002068416941F080014161002070BD0120A7
:1015500070BD022070BD0000C71B0008F51B00080D
:10156000371B000870477047FEE700001D4808B5AC
:10157000416941F0010141614069002200F0010030
:10158000009011460C20FFF7D5F90C20FFF7C4F9A5
:10159000002211460D20FFF7CDF90D20FFF7BCF911
:1015A000002211460E20FFF7C5F90E20FFF7B4F90F
:1015B000002211460F20FFF7BDF90F20FFF7ACF90D
:1015C000002211461020FFF7B5F91020FFF7A4F90B
:1015D000002211461120FFF7ADF9BDE808401120A7
:1015E000FFF79AB90010024070B586B000241D487C
:1015F0000094019402940394816941F02001816177
:10160000816901F020010491816941F00401816147
:10161000816901F004010491816941F0080181614F
:101620008069114E00F008004FF4E045049000225C
:1016300029463046FFF724F848F20100CDE90004BE
:101640000124694630460294FEF72AFF02200095E5
:10165000CDE90140039069463046FEF721FF06B010
:1016600070BD000000100240000C01400E4810B593
:101670000C4901600D49416000214FF480428160B6
:10168000C0E9031201224261F022C0E90621802153
:101690000162FFF701F8002803D0BDE81040FEF713
:1016A000A1BD10BD005400404C000020A0860100E8
:1016B00010B586B000241748009401940294039456
:1016C00004944FF080410594016040F2CF21C0E9BD
:1016D000011440F2E731C0E9031480218161FFF772
:1016E0000CFC08B1FEF77EFD4FF480500090694677
:1016F0000848FFF72FFC08B1FEF774FD049404A915
:1017000004480594FFF7D8FB002801D0FEF76AFDD6
:1017100006B010BDA00000200C4810B50A490160B9
:101720004FF4E1314160002181600C22C160C0E9C9
:1017300004128161C161FFF701FD002803D0BDE8FB
:101740001040FEF74FBD10BD00380140E000002002
:101750000C4810B50A4901604FF4E13141600021A5
:1017600081600C22C160C0E904128161C161FFF790
:10177000E5FC002803D0BDE81040FEF733BD10BDE6
:1017800000440040200100200C4810B50A490160C7
:101790004FF4E1314160002181600C22C160C0E959
:1017A00004128161C161FFF7C9FC002803D0BDE8C4
:1017B0001040FEF717BD10BD00480040600100203A
:1017C000FEE770477047000070B5054645F6FF76A6
:1017D000304600F04DF8002812D10A4C206940F044
:1017E000020020616561206940F0400020613046C0
:1017F00000F03EF8012803D0216921F002012161A7
:1018000070BD0000002002400748C068C10701D039
:1018100001207047410701D502207047C00601D55D
:1018200003207047002070470020024002480169F1
:1018300041F08001016170470020024010B5002393
:1018400006E000BF30F8024B21F813405B1C9BB24E
:101850009342F7D310BD0000034802494160034999
:10186000416070472301674500200240AB89EFCDFE
:1018700010B50446FFF7C8FF012803D0002C00D1A3
:10188000FF2010BD012000F0DDFA641E2404240CAA
:10189000F0D1F5E72DE9F05F1546A0F100628A4628
:1018A0008346B2F5803F53D2FFF7D6FFC2F3480616
:1018B000970AC6F50074A54200D82C46DFF894902C
:1018C0004FF0006000EB872080464FF40072214902
:1018D000FFF7B4FF00204FF6FF7106E0331839F828
:1018E00013208A4203D1401C80B2A042F6D3A0420A
:1018F00026D24046FFF768FF0020494607E000BFB8
:101900003AF810208319401C21F8132080B2A0421D
:10191000F6D3104940464FF4007200BF00F036F88D
:10192000A54211D0281B0AEB440A0BEB440B0026FE
:1019300085B24FF400747F1CA542C1D82C46BFE786
:10194000224651465846E9E7BDE8F05FFFF76EBF13
:10195000BDE8F09F3803002070B506460D46FF2015
:10196000FFF786FF00280ED1074C206940F00100E8
:1019700020613580FF20FFF77BFF012803D021691C
:1019800021F00101216170BD002002402DE9F041EC
:1019900016460F460546002408E000BF37F814102D
:1019A0002846FFF7D9FF641CA4B2AD1CB442F5D39E
:1019B000BDE8F0817047FEF757BF30B58FB02821E2
:1019C0006846FEF7B6FB14210AA8FEF7B2FB012118
:1019D0000804CDE900100024029402250491CDE909
:1019E00007504FF4E01009906846FFF7C1F80F2048
:1019F000CDE90A056802CDE90C4002210AA80E943F
:101A0000FEF7CAFF0FB030BD0D48016841F001017B
:101A1000016041680B4A1140416001680A4A114067
:101A20000160016821F480210160416821F4FE0118
:101A300041604FF41F0181600449C0030860704792
:101A4000001002400000FFF8FFFFF6FE08ED00E086
:101A5000F0B50268164B174C174D4FF0804798426F
:101A600005D0B84203D0A04201D0A84203D122F051
:101A700070064A683243984205D0B84203D0A0426B
:101A800001D0A84203D122F44074CA6822434C69B1
:101A900022F08002224302608A68C2620A6882627F
:101AA000984201D10969016301214161F0BD000043
:101AB000002C0140000400400008004010B584687C
:101AC00042EA032224F47F440A432243826010BD89
:101AD000826822F070020A4342F007018160704779
:101AE00010B5036A046A24F001040462846924F0D6
:101AF000F00444EA021423F00A020A4384610262F9
:101B000010BD10B5036A23F0100303628369046AF1
:101B100023F4704343EA023224F0A00343EA0111A4
:101B20008261016210BD10B5406A0021C185C18487
:101B3000FFF77BFA10BD70B5446A2068406994F8DD
:101B40003910C0F3C0100025212904D118B1E58453
:101B5000204600F062F82068406994F83A10C0F31B
:101B60008010222904D118B1E585204600F047F8FD
:101B7000E06B40F01000E0632046FFF756FA70BDBE
:101B800010B50146406A09680968890613D4002126
:101B9000C1850168CA6822F48072CA6001684A6916
:101BA00022F001024A6101684A6922F040024A615A
:101BB000202180F83A10FFF77FFC10BD10B5406A75
:101BC000FFF78EFC10BD10B50146406A0968096830
:101BD00089060CD40021C18401684A6922F0800280
:101BE0004A610068C16841F04001C16010BDFFF763
:101BF000B9FC10BD10B5406AFFF7B5FC10BD016817
:101C0000CA6822F49072CA6001684A6922F001022F
:101C10004A61202180F83A1070470168CA6822F0B2
:101C2000C002CA60202180F83910704710B590F8C2
:101C30003A10222901D0022010BD8168B1F5805FE1
:101C400011D00169002901681FD0496801F07F03A4
:101C5000816A4A1C82620B70C18D491E0904090CFD
:101C6000C18518D02BE00269816A002A0268526897
:101C700005D0D2B20A80816A491C8162ECE7C2F3C6
:101C800008020A80816A891CF7E74A68816A4B1C4E
:101C900083620A70E0E70168CA6822F02002CA6025
:101CA0000168CA6822F48072CA6001684A6922F039
:101CB00001024A61202180F83A10FFF7FDFB002065
:101CC00010BD00002DE9F041044600680169E2689A
:101CD00021F44051114301612169A0680843616901
:101CE00008432168CA6841F20C639A430243CA6000
:101CF00020684169A26921F44071114341611E4984
:101D0000206864253226884202D1FEF7EBFE01E00E
:101D1000FEF7D8FE00EBC00101EB001160686FF028
:101D200018078000B1FBF0F2B2FBF5F2B1FBF0F363
:101D30007A4303EB8202B1FBF0F306EB0212B2FB33
:101D4000F5F2B3FBF5F302F0F00202EB0312B1FB84
:101D5000F0F3B1FBF0F0B0FBF5F0784303EB80005B
:101D600006EB0010B0FBF5F0216800F00F00104406
:101D70008860BDE8F08100000038014090F839101B
:101D8000212901D0022070478168B1F5805F016A86
:101D90000BD04A1C0262026809785160C18C491E4E
:101DA0000904090CC1840ED017E009880268C1F348
:101DB0000801516001690029016A02D0491C0162D1
:101DC000ECE7891CFBE70168CA6822F08002CA6060
:101DD0000068C16841F04001C16000207047000008
:101DE0000148FFF723B90000E00000200148FFF799
:101DF0001DB90000200100200148FFF717B90000BD
:101E000060010020FEE70907090E002804DB00F14D
:101E1000E02080F80014704700F00F0000F1E0208F
:101E200080F8141D704702E008C8121F08C1002A7C
:101E3000FAD170477047002001E001C1121F002A4B
:101E4000FBD170470849097848434FF0E0214861C9
:101E50000020886101220A610A69D30701D0D203F8
:101E6000FAD5086188617047080000201CB5FEF7AC
:101E700003FDFFF7A2FDFFF7B7FBFFF777FBFFF7C7
:101E8000F5FBFFF749FCFFF763FCFFF77DFCFFF76D
:101E90000FFC082213491448FFF7C2FA082213491D
:101EA0001348FFF7BDFA1149082218311148FFF70E
:101EB000B7FA114D40F24C44082269462846FFF714
:101EC000BDFC082269460848FFF70CFB0022AA2146
:101ED000491E0904090CFBD1521C92B2A242F6D34E
:101EE000EAE7000000000020E00000201C000020C5
:101EF000200100206001002000F000080000000028
:101F000000000000010203040607080900000000A9
:101F100001020304341F0008000000201C00000020
:101F2000261E0008501F00081C0000201C0B00008B
:101F3000361E000800020403060000000000000036
:101F40000100000010000000000000000024F40068
:04000005080000ED02
:00000001FF
