:020000040800F2
:10000000680B002001010008931B00080719000875
:10001000911B000803030008D92700080000000016
:100020000000000000000000000000005123000854
:100030007703000800000000A91B000853230008F4
:100040001B0100081B0100081B0100081B01000820
:100050001B0100081B0100081B0100081B01000810
:100060001B0100081B0100081B0100081B01000800
:1000700005030008110300081D03000829030008F8
:1000800035030008410300081B0100081B0100089C
:100090001B0100081B0100081B0100081B010008D0
:1000A0001B0100081B0100081B0100081B010008C0
:1000B000ED2300081B0100081B0100081B010008BC
:1000C0001B0100081B0100081B0100081B010008A0
:1000D0001B010008B5270008C1270008CD2700082C
:1000E0001B0100081B0100081B010008DFF80CD0F1
:1000F00000F0E6F800480047212D0008680B0020BA
:100100000648804706480047FEE7FEE7FEE7FEE7B1
:10011000FEE7FEE7FEE7FEE7FEE7FEE7A5230008B1
:10012000ED000008202A04DB203A21FA02F0002129
:10013000704721FA02F3D040C2F1200291400843F7
:1001400019467047D2B201E000F8012B491EFBD2DC
:1001500070470022F6E710B513460A4604461946D2
:10016000FFF7F0FF204610BD30B480EA010202F034
:10017000004530F0004221F0004013D090B1C30D93
:10018000D40DC2F31601C0F31600E41A41F40001C5
:1001900040F400027D34914201D3641C00E0490028
:1001A000002C02DA30BC002070474FF4000000231E
:1001B000914201D3891A034340084FEA4101F7D124
:1001C00051B1914202D14FF0004105E002D24FF00F
:1001D000010101E06FF0010103EBC450284430BC81
:1001E00000F036B896230022114600F03AB82DE907
:1001F000F05F0546002092469B46884606468146AB
:1002000040241BE02846414647462246FFF78AFF26
:1002100053465A46C01A914110D3114618462246F9
:1002200000F060F82D1A67EB01084F4622460120C6
:10023000002100F057F817EB00094E41201EA4F1F1
:100240000104DFDC484631462A464346BDE8F09FBC
:100250000029A8BF7047401C490008BF20F00100DA
:10026000704710B4B0FA80FC00FA0CF050EA0104B8
:1002700004BF10BC704749B1CCF1200421FA04F44A
:1002800011FA0CF118BF012121430843A3EB0C0123
:10029000CB1D4FEA00614FEA102042BF002010BC86
:1002A000704700EBC35010440029A4BF10BC704736
:1002B000401C490008BF20F0010010BC704700003E
:1002C000064C074D06E0E06840F0010394E80700A3
:1002D00098471034AC42F6D3FFF70CFFDC2D000832
:1002E000FC2D0008202A04DB203A00FA02F100204D
:1002F00070479140C2F1200320FA03F31943904064
:100300007047FEE7014800F085B800002407002090
:10031000014800F07FB80000E0060020014800F02E
:1003200079B8000014060020014800F073B80000FE
:10033000D0050020014800F06DB8000058060020EC
:10034000014800F067B800009C06002030B590F826
:1003500040500124AC40C56B6C6004686360436826
:10036000102B036803D099600068C26030BD9A60AA
:100370000068C16030BD70477047000010B590F84C
:1003800021100024022903D00421816301243DE0CF
:1003900001680A6822F00E020A6001680A6822F009
:1003A00001020A601A4A0168914201D1012121E04B
:1003B000174A1432914201D110211BE0144A28320D
:1003C000914201D1891515E0114A3C32914201D187
:1003D00089140FE00E4A5032914202D14FF480311D
:1003E00008E00B4A6432914202D14FF4801101E0DF
:1003F0004FF08071064A083A5160012180F82110BF
:10040000002180F82010416B01B18847204610BDC3
:10041000080002402DE9F05FC16B0C6801680B68B1
:10042000D0F840C0042202FA0CF2494DDFF824A1B2
:10043000494E4A4FDFF828B1DFF828E122422CD09C
:100440005A072AD50A68920603D40A6822F00402E1
:100450000A600168A94201D1042219E0514501D185
:10046000402215E0B14202D14FF4806210E0B9425F
:1004700002D14FF480420BE0594502D14FF4802263
:1004800006E0714502D14FF4800201E04FF0806236
:100490002F4908394A60C16A3BE04FF0020808FA68
:1004A0000CF818EA040F4FF000094FF0010235D0A4
:1004B0005FEA837832D50B689B0605D40B6823F07E
:1004C0000A030B6080F821200168A94201D10222B1
:1004D00019E0514501D1202215E0B14202D14FF47B
:1004E000007210E0B94202D14FF400520BE05945BE
:1004F00002D14FF4003206E0714502D14FF40012F0
:1005000001E04FF00072124908394A6080F82090EB
:10051000816A00291AD0BDE8F05F0847082505FA6E
:100520000CF5254212D01B0710D50B6823F00E03E3
:100530000B6090F84010C36B02FA01F159608263BE
:1005400080F8212080F82090016BE2E7BDE8F09F61
:10055000080002401C0002403000024044000240FB
:10056000580002406C00024030B528B308C8134957
:1005700014221944B1FBF2F18900C163104981636F
:10058000022141771A6843F6F0718A43D0E90014DA
:100590002143D0E902452C432143046921434469A6
:1005A00021438469214311431960002141630122E1
:1005B00042770177084630BD012030BDF8FFFDBF0E
:1005C0000000024070B5044690F820000025012884
:1005D0000CD0012084F8200094F821600020012E26
:1005E00006D084F820000225284670BD022070BD88
:1005F000022684F82160A0632068066826F00106C0
:1006000006602046FFF7A2FEE06A00282068016825
:1006100002D041F00E0106E021F0040101602068E3
:10062000016841F00A0101602068016841F00101A0
:100630000160D9E72DE9F84FDFF8B891002409F1FE
:10064000040A0AF1040B23460F270BF1040EC9E03C
:100650000125A5402A40AA427DD1674ED1F804C0A9
:10066000ACEB0608B44532D014DCBCF1030F3AD031
:1006700009DCBCF1000F2AD0BCF1010F1CD0BCF189
:10068000020F31D11DE0BCF1110F17D0BCF1120FD8
:100690002AD119E0B8F5881F19D006DCB8F5803FDB
:1006A00015D0B8F5801F1FD111E0B8F5001F0ED08E
:1006B000B8F5041F18D10AE0CB6815E0CB681B1D04
:1006C00012E0CB6808330FE0CB680C330CE08B688A
:1006D0002BB1012B4FF0080303D0456104E0042344
:1006E00002E0056100E00023FF2A01D8064601E090
:1006F00000F104064FEA840501D9A5F12005D6F8DA
:10070000008007FA05FC28EA0C0803FA05F548EA18
:100710000508C6F800804D68ED0062D5374DAE691A
:1007200046F00106AE61AD6924F0030605F001054F
:100730000095334D06EB050CDCF80850A607360F84
:1007400007FA06F825EA0805DFF8B880404503D126
:100750004FF0000817E044E0DFF8AC80404502D1DC
:100760004FF001080FE0DFF8A480404502D14FF0C0
:10077000020808E0DFF89880404502D14FF00308F6
:1007800001E04FF0040808FA06F848EA0508CCF83A
:1007900008804D68D9F80060ED034D4601D5164339
:1007A00000E096432E604D68DAF80060AD035546D0
:1007B00001D5164300E096432E604D68DBF80060DB
:1007C000ED025D4601D5164300E096432E604D686C
:1007D000DEF80060AD02754601D5164300E0964391
:1007E0002E60641C0D682A46E5407FF431AFBDE8F9
:1007F000F88F0000000401400000111000100240BA
:100800000000014000080140000C014000100140C0
:10081000001401400AB1016170470904FBE70000C0
:1008200001488068704700003000002070B5040067
:100830001BD094F83D00002520B984F83C50204698
:1008400000F0AEF8242084F83D002068016821F013
:100850000101016000F000FA4D4A6168914201D83F
:100860004C4900E04C49884201D2012070BD4B49FF
:100870002368B0FBF1F15E6826F03F060E435E6030
:100880006368934206D94FF4967359434FF47A73D1
:10089000B1FBF3F12368491C1E6A26F03F06314381
:1008A00019626168914210D84900401EB0FBF1F214
:1008B000521CC2F30B02042A01D2042022E0B0FB36
:1008C000F1F0401CC0F30B001CE0A368F3B301EB94
:1008D000C10202EB0116421EB2FBF6F2521C42F4B8
:1008E0008042120549D093B301EBC10202EB011122
:1008F000401EB0FBF1F0401CC0F30B0040F4804000
:1009000040F400402168CA694CF6FF739A431043D3
:10091000C861D4E90701084321680A6822F0C002CF
:1009200010430860D4E9030101432068826848F25B
:10093000FF339A4311438160D4E9050108432168DC
:10094000CA6822F0FF021043C86001E00EE016E022
:100950002068016841F0010101602564202084F8CD
:100960003D00256384F83E50002070BD01EB410638
:10097000421EB2FBF6F2521CB3E70120C2E701EBC4
:100980004101401EB0FBF1F0401CC0F30B00B7E783
:10099000A086010080841E0000093D0040420F0037
:1009A00010B586B000210091019102910391006879
:1009B0000F4988421AD10F4CA06940F00800A0618D
:1009C000A069694600F008000490C0200090122041
:1009D0000190032003900848FFF72CFEE06940F4E3
:1009E0000010E061E06900F40010049006B010BD52
:1009F0000054004000100240000C01400248816891
:100A0000027811448160704730000020074810B51B
:100A1000016841F010010160032000F075F800202A
:100A200000F006F800F024F8002010BD002002407D
:100A300070B50D4D04464FF47A712878B1FBF0F093
:100A40000A490968B1FBF0F000F0ECFA48B9102C43
:100A500007D200222146501E00F036F800206C60BC
:100A600070BD012070BD0000300000203C0000205F
:100A70000C4808B5816941F001018161816901F08B
:100A800001010091C16941F08051C161C06900F06C
:100A9000805000900448416821F0E06141F000710D
:100AA000416008BD0010024000000140002809DB41
:100AB00000F01F02012191404009800000F1E02078
:100AC000C0F8001170470000F0B40E4B1B680C46D4
:100AD000C3F30223C3F10705042D00D90425191D12
:100AE000072901D2002300E0DB1E012606FA05F1EA
:100AF000491E214099409E40761E16403143F0BC6D
:100B000001F07CBE0CED00E0064900F00702086829
:100B10004FF6FF03184040EA0220034A10430860E2
:100B2000704700000CED00E00000FA052DE9F047E9
:100B30000F46050061D0434E306800F00700B84210
:100B400009D2306820F0070038433060306800F088
:100B50000700B84251D128683B4C810712D54007A5
:100B600003D5606840F4E06060602878000703D532
:100B7000606840F4605060606068A96820F0F00030
:100B8000084360602878C00728D06868012810D022
:100B90002168022810D0890700292EDA616821F027
:100BA000030101436160FFF73BFE804641F2883953
:100BB0000DE021688903EFE78901EDE7FFF730FEDB
:100BC000A0EB0801494502D90320BDE8F087606821
:100BD000696800F00C00B0EB810FEFD1306800F0D5
:100BE0000700B8420BD9306820F007003843306066
:100BF000306800F00700B84201D00120E5E728780E
:100C0000400705D56068E96820F4E060084360604B
:100C10002878000706D56068296920F4605040EA0A
:100C2000C100606000F038F86168084AC1F3031140
:100C3000515CC8400649086006480068FFF7F8FEA6
:100C40000020C2E70020024000100240C42D00082E
:100C50003C00002034000020044805490068496831
:100C6000044AC1F30221515CC84070473C00002097
:100C700000100240D42D0008044805490068496866
:100C8000044AC1F3C221515CC84070473C000020B7
:100C900000100240D42D000812A185B00FC98DE8C4
:100CA0000F0014A0144A006804905168134801F022
:100CB0000C03042B10D0082B0ED1C1F38343C903BE
:100CC0001DF803000AD5516804AAC1F34041515CE4
:100CD0000A4A5043B0FBF1F005B070470849484359
:100CE000FAE7000002030405060708090A0B0C0DC9
:100CF0000E0F1010010200000010024000127A00D6
:100D000000093D002DE9F84F040070D02078C04D57
:100D1000C00749D06868C0F38100012807D068681F
:100D2000C0F38100022809D16868C00306D528688D
:100D3000800339D560680028E7D035E06068B0F5F9
:100D4000803F0BD010B1B0F5A02F11D0286820F44F
:100D500080302860286820F4802002E0286840F471
:100D600080302860606890B1FFF75AFD06460AE0BF
:100D7000286840F480202860F0E700BFFFF750FDAE
:100D8000801B642873D828688003F7D50CE0FFF730
:100D900047FD064605E000BFFFF742FD801B6428C3
:100DA000F0D828688003F7D420789A4E80074FF057
:100DB00001094FF0000839D5686810F00C0F07D012
:100DC0006868C0F38100022809D16868C00306D4AE
:100DD0002868800714D52069012808D110E020690F
:100DE000B0B1C6F80090FFF71BFD074605E00AE129
:100DF000FFF716FDC01B0228C4D828688007F7D566
:100E00002868616920F0F80040EAC10028600DE020
:100E1000C6F80080FFF704FD074604E0FFF700FD79
:100E2000C01B022823D828688007F7D42078000741
:100E30002CD57948A169D9B1C0F80090FFF7F0FC32
:100E4000074604E0FFF7ECFCC01B02280FD8686AD5
:100E50008007F7D571484FF4FA510068B0FBF1F004
:100E6000009000BF0098411E0091FAD20EE080E091
:100E7000C0F80080FFF7D4FC074604E0FFF7D0FC81
:100E8000C01B022875D8686A8007F7D4207840070D
:100E900060D5E8690027C00008D4E86940F08050B8
:100EA000E861E869012700F0805000905C48016823
:100EB000C90513D40168834641F480710160FFF7CE
:100EC000AFFC824606E000BFFFF7AAFCA0EB0A00D9
:100ED00064284ED8DBF80000C005F5D5E06801288D
:100EE0000AD008B1052813D0286A20F00100286232
:100EF000286A20F0040002E0286A40F0010028621D
:100F0000E06841F2883B98B1FFF78AFC82460BE02B
:100F1000286A40F004002862EEE700BFFFF780FC7B
:100F2000A0EB0A0159455AD8286A8007F6D50CE08B
:100F3000FFF776FC824605E0FFF772FCA0EB0A01A2
:100F400059454CD8286A8007F6D41FB1E86920F0CB
:100F50008050E861E06988B36968C1F381010229C2
:100F600044D00228C6F8608004D0FFF759FC04463C
:100F700038E034E0FFF754FC074604E0FFF750FC8C
:100F8000C01B02282BD828688001F7D4206AB0F54E
:100F9000803F05D16868A16820F40030084368608C
:100FA000D4E908010843696821F4741108436860B2
:100FB000C6F86090FFF734FC044606E025E000BF69
:100FC000FFF72EFC001B022809D828688001F7D5FE
:100FD0001BE000BFFFF724FC001B022802D90320FE
:100FE000BDE8F88F28688001F4D40EE00128F7D01E
:100FF0006868226A00F48031914204D1616A00F489
:101000007010884201D00120EAE70020E8E70000E4
:101010000010024000004242800442423C00002096
:101020000070004010B5401EB0F1807F01D3012058
:1010300010BD4FF0E02460610F21601701F0DEFB6E
:101040000020A06107202061002010BD704770477C
:1010500070B590F83C20012A19D0012400F83C4FCB
:101060000222427050F83C3C5A689D6822F070069B
:101070000A684968324325F0800529435A6050F8D0
:101080003C2C9160447000210170084670BD022024
:1010900070BD10B5040003D094F83D0010B107E016
:1010A000012010BD002084F83C00204600F00CF820
:1010B000022084F83D00211D206801F09DF90120E7
:1010C00084F83D00002010BD08B50068B0F1804FE5
:1010D00012D10A48C16941F00101C161C069002211
:1010E00000F00100009011461C20FFF7EDFCBDE868
:1010F00008401C20FFF7DABC08BD000000100240C9
:101100000168CA6842F00102CA600068816801F0A3
:101110000701062903D0016841F0010101600020A8
:10112000704770B5044690F83C00012817D001259F
:1011300084F83C50022084F83D002068826822F048
:10114000770222F47F4282600868502830D00DDC9C
:1011500020284DD005DC98B310283BD148E0022070
:1011600070BD302844D0402834D139E0602828D0E0
:10117000702806D0B0F5805F2CD0B0F5005F29D183
:101180000AE0CB68D1E90121206801F06BF9206801
:10119000816841F0770109E0CB68D1E9012120683D
:1011A00001F060F92068816841F48041816011E0BC
:1011B000CA684968206801F067F95021206807E093
:1011C00016E0CA684968206801F06FF9602120685C
:1011D00001F052F984F83D50002084F83C0070BDC5
:1011E000CA684968206801F04FF940212068EFE79C
:1011F000226801461046EBE7704770B50446006868
:1012000001694FF00005C943890715D4C168C94376
:10121000890711D4E91E01610120207720688069C7
:101220008007204602D0FFF7E7FF04E000F098F8BF
:10123000204600F096F8257720680169C9434907E0
:1012400017D4C168C943490713D46FF00401016181
:10125000022020772068806910F4407F204602D069
:10126000FFF7CAFF04E000F07BF8204600F079F8B1
:10127000257720680169C943090716D4C168C943A5
:10128000090712D46FF0080101610420207720685B
:10129000C0698007204602D0FFF7AEFF04E000F0EF
:1012A0005FF8204600F05DF8257720680169C943A2
:1012B000C90617D4C168C943C90613D46FF0100119
:1012C0000161082020772068C06910F4407F204623
:1012D00002D0FFF791FF04E000F042F8204600F052
:1012E00040F8257720680169C943C90708D1C1685A
:1012F000C943C90704D1891E0161204600F032F8B4
:1013000020680169C943090609D4C168C9430906AF
:1013100005D46FF0800101612046FFF797FE206839
:101320000169C943490609D4C168C943490605D4BE
:101330006FF040010161204600F02AF82068016941
:10134000C94389060BD4C168C943890607D46FF025
:10135000200101612046BDE87040FFF778BE70BDF6
:101360007047704708490068096888420AD10748F1
:101370004EF66022C188491C89B2C180914201D3D6
:101380000021C18070470000D0040020040000202C
:101390007047704770B5026804461068D168536999
:1013A00010F00F0F50D003F0010501F49076354393
:1013B0005DD0C20705D0CA0503D5E26B42F0010239
:1013C000E263420705D5DA0703D0E26B42F002027E
:1013D000E263820705D5DA0703D0E26B42F004022C
:1013E000E263020705D5DA0703D0E26B42F0080298
:1013F000E263E26B002A33D0800604D5880602D56A
:10140000204601F0CBF820684069E16BC0F3801002
:10141000090700D428B3204601F0A9F820684169E3
:1014200049061AD5416921F040014161606BA0B1C4
:101430001B494163606BFEF7A1FF002810D0606B71
:10144000416BBDE870400847830610D58B060ED56A
:101450002046BDE8704001F0A1B82046FFF799FF93
:1014600070BD2046FFF795FF0020E06370BD0306C6
:1014700006D50B0604D52046BDE8704001F036B90C
:101480004006F3D54806F1D5D168204621F0400149
:10149000D160202184F8391000F034FA70BD0000CA
:1014A000CF24000870B5040004D094F8390000255A
:1014B00010B106E0012070BD84F83850204600F0DD
:1014C00023F8242084F839002068C16821F40051F1
:1014D000C160204601F0AEF82068016921F4904116
:1014E00001612068416921F02A0141612068C168D9
:1014F00041F40051C160E563202084F8390084F88C
:101500003A00002070BD00002DE9F04786B00025AC
:1015100000950195029503950446DFF84882D0F8BE
:1015200000C0914802210322904B202780264FF4CF
:10153000806A4FF01009C44557D1D0F818C04CF458
:10154000804CC0F818C0D0F818C00CF4804CCDF80E
:1015500010C0D0F818C04CF0040CC0F818C0806956
:10156000039200F0040004900802CDE900016946EE
:1015700098461846FFF75EF8CDE900A56946404653
:101580000295FFF757F8DFF8EC8179494046C0E94A
:101590000015C0E90256C8F81050C8E90557C8F848
:1015A0001C50FEF7E1FF08B1FEF7E6FE714FC4F8EC
:1015B00034804437C8F82440C7E902563D616C487E
:1015C0007D61BD611438FD61C7E900093846FEF749
:1015D000CBFF08B1FEF7D0FE27630022114625207D
:1015E0007C62FFF771FA25205EE0DFF88C81C4454C
:1015F0005FD1D0F81CC04CF4003CC0F81CC0D0F83F
:101600001CC00CF4003CCDF810C0D0F818C04CF051
:10161000040CC0F818C08069039200F00400049024
:101620000420CDE90001694698461846FFF702F804
:101630000820CDE90005694640460295FEF7FAFF0D
:10164000DFF830814A4908F1880840461431C0E982
:101650000015C0E90256C8F81050C8E90557C8F887
:101660001C50FEF781FF08B1FEF786FE414FC4F81B
:101670003480CC37C8F82440C7E902563D613C4865
:101680007D61BD612830FD61C7E900093846FEF77C
:101690006BFF08B1FEF770FE27630022114626207B
:1016A0007C62FFF711FA2620FFF700FA06B0BDE8CA
:1016B000F087324B9C45F9D1C36943F48023C36161
:1016C000C36903F480230493836943F008038361AF
:1016D0008069CDE900A100F00800CDE90320DFF822
:1016E000A08069464046FEF7A5FF4FF40060CDE9B3
:1016F0000005694640460295FEF79CFFDFF88480AE
:101700001B4940462839C0E90015C0E90256C8F80F
:101710001050C8E90557C8F81C50FEF725FF08B15E
:10172000FEF72AFE174FC4F834804437C8F8244027
:10173000C7E902563D610E487D61BD613C38FD61DF
:10174000C7E900093846FEF70FFF08B1FEF714FE9F
:1017500027630022114627207C62FFF7B5F9272076
:10176000A2E70000003801400010024000080140DC
:1017700058000240D00500200044004000480040CE
:10178000000C0140E0060020F8B5044690F83A004D
:1017900020283CD1C1B3BAB394F83800012836D020
:1017A000012084F83800A162A2850025E56322208B
:1017B00084F83A00636B17489862636B1648D862E6
:1017C000636B16481863606B134645630846666B87
:1017D000216802463046091DFEF7F4FE20680168C4
:1017E0004168009184F83850C16841F48071C1604B
:1017F0002068416941F0010141612068416941F07F
:10180000400141610020F8BDFFE70120FBE7022015
:10181000F9E700002925000865250008DF240008F5
:101820000649884202D1064A0121117005498842C1
:1018300003D10348083000F023BC70475005002056
:10184000040000201005002070472DE9F8430446ED
:1018500090F839001F4616460D46202850D1A5B1F4
:101860009EB194F8380001284AD0012084F838004D
:101870004FF00008C4F83C80212084F83900FEF7BE
:10188000CFFFA6848146E68426E00120BDE8F883E8
:10189000E08C401EE084A0684B46B0F5805F4FF0BE
:1018A00000024FF080012046009703D000F04FFF68
:1018B000E8B90DE000F04BFFC8B928882168C0F3F3
:1018C00008004860206908B16D1C05E0AD1C03E00C
:1018D000216815F8010B4860E08C0028D8D14B46F0
:1018E000002240212046009700F031FF08B103207C
:1018F000CCE7202084F8390084F838800020C5E740
:101900000220C3E77047FEE71D4808B5416941F072
:10191000010141614069002200F001000090114680
:101920000C20FFF7D1F80C20FFF7C0F80022114679
:101930000D20FFF7C9F80D20FFF7B8F80022114677
:101940000E20FFF7C1F80E20FFF7B0F80022114675
:101950000F20FFF7B9F80F20FFF7A8F80022114673
:101960001020FFF7B1F81020FFF7A0F80022114671
:101970001120FFF7A9F8BDE808401120FFF796B83D
:10198000001002402DE9F04186B00024294800945F
:10199000019402940394816941F02001816181697D
:1019A00001F020010491816941F0040181618169A4
:1019B00001F004010491816941F0080181618069AD
:1019C0001D4F00F008004FF40846049000223146F5
:1019D0003846FEF71FFFDFF86480002238214046BA
:1019E000FEF718FF48F2010001258DE83100694635
:1019F0004046FEF71FFE4FF4C040CDE900046946A3
:101A000040460294FEF716FECDE900650226CDE9B8
:101A1000024669463846FEF70DFE3820CDE900053E
:101A2000CDE9024669464046FEF704FE06B0BDE831
:101A3000F08100000010024000080140000C01404D
:101A40000E4810B50C4901600D49416000214FF46A
:101A500080428160C0E9031201224261F022C0E9A4
:101A6000062180210162FEF7E1FE002803D0BDE8D7
:101A70001040FEF781BC10BD005400407C040020E3
:101A8000A086010010B586B0002416480094019489
:101A90000294039404944FF080410594016047211F
:101AA000C0E9011440F2E731C0E903148461FFF793
:101AB000F0FA08B1FEF760FC4FF4805000906946E0
:101AC0000848FFF72EFB08B1FEF756FC049404A962
:101AD00004480594FFF7BCFA002801D0FEF74CFC3F
:101AE00006B010BDD00400200C4810B50A490160B2
:101AF0004FF4E1314160002181600C22C160C0E9F6
:101B000004128161C161FFF7CDFC002803D0BDE85C
:101B10001040FEF731BC10BD003801401005002018
:101B20000C4810B50A4901604FF4E13141600021D1
:101B300081600C22C160C0E904128161C161FFF7BC
:101B4000B1FC002803D0BDE81040FEF715BC10BD65
:101B500000440040500500200C4810B50A490160BF
:101B60004FF4E1314160002181600C22C160C0E985
:101B700004128161C161FFF795FC002803D0BDE824
:101B80001040FEF7F9BB10BD004800409005002052
:101B9000FEE770471C220249024800F01BBB000010
:101BA0001100002000F00008704700002DE9FE43FE
:101BB000944C4FF00008944F84F80380454601266A
:101BC000607809283DD2DFE800F0050C171C2126BB
:101BD0002B303500785D592806D166708DF80000ED
:101BE0002FE0785D592802D084F8018029E08DF833
:101BF00001000220607024E0785D8DF8020003206F
:101C0000F8E7785D8DF803000420F3E7785D8DF840
:101C100004000520EEE7785D8DF805000620E9E771
:101C2000785D8DF806000720E4E7785D8DF8070001
:101C30000820DFE7684601F032F8795D884200D17C
:101C4000E6706D1CEDB2092DBAD384F80180E078FE
:101C5000454600287AD0E5709DF802009DF80310F3
:101C600000EB0120FEF7BEFA6849FEF77DFA684BEB
:101C7000D3F800816749684ADFF8A0C14FF47A774A
:101C8000B8F1000F2FD0D3F83C81B8F1000F2AD063
:101C900088420BDCC2F8BC61C3F88C61C2F8AC515D
:101CA000C3F89051C3F894615DA0A0E060454DDC9D
:101CB000E188B1FBF7F007FB1010002846D1D2F8FD
:101CC000BC0180F00100C2F8BC01D3F88C0180F0A7
:101CD0000100C3F88C01C2F8AC51C3F89061C3F89D
:101CE000945154A030E0D3F83C81DFF85491B8F11E
:101CF000000F2DD05349DFF850810144414501D9EF
:101D0000604523DA484507DCC2F8BC61C3F88C6142
:101D1000C2F8AC514DA06AE0E188B1FBF7F407FBD3
:101D20001414002C12D1604510DAD2F8BC0180F0F6
:101D30000100C2F8BC01D3F88C0180F00100C3F8A7
:101D40008C01C2F8AC5146A000F048FDBDE8FE830E
:101D5000B0F17F5F4EDADFF8ECC0CCF1000C6045EB
:101D600007DAC2F8BC51C3F88C61C2F8AC5142A08A
:101D70003DE0884213DAE088C821B0FBF1F401FBB2
:101D800014000028E2D1D2F8BC0180F00100C2F8B2
:101D9000BC01C3F88C51C2F8AC513BA027E04845C8
:101DA000E08813DA4FF4FA71B0FBF1F401FB140090
:101DB0000028CBD1D2F8BC0180F00100C2F8BC01F0
:101DC000C3F88C51C2F8AC5133A010E0B0FBF7F16E
:101DD00007FB11000028B9D1D2F8BC0180F0010046
:101DE000C2F8BC01C3F88C51C2F8AC512EA000F06F
:101DF000F5FCABE7C2F8BC51C3F88C51C2F8AC613A
:101E0000A4E70000040000205F0400200000C84296
:101E1000008021429A99193F000021420000404071
:101E200064697374616E6365203C20302E360A0A43
:101E30000000000074696D653D2564200A00000003
:101E40006666663F666666C1CCCCCC006469737416
:101E5000616E6365302E33202D20302E390A0A0042
:101E600064697374616E63653C332E302074696DF0
:101E7000653D25640A0A000064697374616E6365D8
:101E8000203C302E330A0A0064697374616E636506
:101E9000203C302E360A0A0064697374616E6365F3
:101EA000203C302E390A0A0064697374616E6365E0
:101EB000203C20312E350A0A000000002DE9FE4F9B
:101EC000634C0025634F25712E464FF00109A07821
:101ED00009283ED2DFE800F0050D171C21262B3023
:101EE0003500B85D592807D184F802908DF80000BC
:101EF0002FE0B85D592801D0A5702AE08DF80100C7
:101F00000220A07025E0B85D8DF802000320F8E7FC
:101F1000B85D8DF803000420F3E7B85D8DF8040088
:101F20000520EEE7B85D8DF805000620E9E7B85D0D
:101F30008DF806000720E4E7B85D8DF8070008205B
:101F4000DFE7684600F0ABFEB95D884201D184F856
:101F50000490761CF6B2092EB9D3A570207900281A
:101F60006CD025719DF802009DF80310A04600EB8F
:101F70000120FEF737F93849FEF7F6F8374E0746E5
:101F8000D6F83C01364CDFF8DCA04FF47A7B18B36E
:101F9000354836493844884201D9574550DAB8F8AF
:101FA0000610B1FBFBF20BFB121060B957450ADCBF
:101FB000D4F8BC0180F00100C4F8BC01D6F88C0153
:101FC00080F0010005E02A48874237DC4846C4F823
:101FD000BC91C6F88C012FE026A000F0FFFBB7F102
:101FE0007F5F2DDC20484042874203DCC4F8BC51AF
:101FF0004846EEE7574503DCB8F80600C82106E07E
:102000001B48874208DCB8F806004FF4FA71B0FBB1
:10201000F1F201FB120005E0B8F80610B1FBFBF28B
:102020000BFB1210002809D1D4F8BC0180F001008C
:10203000C4F8BC01C6F88C51C4F8AC51BDE8FE8FA1
:10204000C4F8BC51C6F88C51C4F8AC91F6E7000056
:1020500004000020440400200000C8420080214207
:10206000000021429A99193F666666C1CCCCCC002B
:102070006666663F6D6F64652042200A0A000000B4
:1020800010B504460078A52861D160785A285ED141
:10209000A1782FA000F0A2FBA0781B2857D2DFE880
:1020A00000F00E56125617561C56215626562B5621
:1020B000305635563A563F56445649564E00012240
:1020C000E11C26483FE025480122E11C801C3AE043
:1020D00022480122E11C001D35E020480222E11CBB
:1020E000801D30E01D480222E11C08302BE01B4817
:1020F0000222E11C0A3026E018480222E11C0C30C2
:1021000021E016480222E11C0E301CE01348022296
:10211000E11C103017E011480222E11C123012E0DD
:102120000E480222E11C14300DE00C480222E11C92
:10213000163008E009480222E11C183003E0074885
:102140000222E11C1A30BDE8104000F071B810BD49
:10215000636D643D253032780A00000000F000080D
:1021600070B5054645F6FF76304600F04FF800287A
:1021700012D10A4C206940F002002061656120699B
:1021800040F040002061304600F040F8012803D0C4
:10219000216921F00201216170BD00000020024090
:1021A0000748C068C10701D001207047410701D529
:1021B00002207047C00601D50320704700207047F9
:1021C000002002400248016941F08001016170472E
:1021D0000020024010B5002306E000BF30F8024B9B
:1021E00021F813405B1C9BB29342F7D310BD0088CB
:1021F000704700000348024941600349416070474D
:102200002301674500200240AB89EFCD10B504469D
:10221000FFF7C6FF012803D0002C00D1FF2010BD1E
:10222000012000F05DFD641E2404240CF0D1F5E7CC
:102230002DE9F05F1546A0F100628A468346B2F5AB
:10224000003F53D2FFF7D6FFC2F34806970AC6F500
:102250000074A54200D82C46DFF894904FF000603F
:1022600000EB872080464FF400722149FFF7B2FF50
:1022700000204FF6FF7106E0331839F813208A4228
:1022800003D1401C80B2A042F6D3A04226D24046E1
:10229000FFF766FF0020494607E000BF3AF810202C
:1022A0008319401C21F8132080B2A042F6D31049B4
:1022B00040464FF4007200BF00F036F8A54211D03E
:1022C000281B0AEB440A0BEB440B002685B24FF4A3
:1022D00000747F1CA542C1D82C46BFE72246514658
:1022E0005846E9E7BDE8F05FFFF76CBFBDE8F09F37
:1022F0004400002070B506460D46FF20FFF786FF1C
:1023000000280ED1074C206940F001002061358083
:10231000FF20FFF77BFF012803D0216921F0010195
:10232000216170BD002002402DE9F04116460F46A4
:102330000546002408E000BF37F814102846FFF7D0
:10234000D9FF641CA4B2AD1CB442F5D3BDE8F08142
:102350007047FEF753BB30B58FB028216846FDF7B4
:10236000F8FE14210AA8FDF7F4FE01210804CDE9C6
:1023700000100024029402250491CDE907504FF487
:10238000E01009906846FEF7BDFC0F20CDE90A0574
:102390006802CDE90C4002210AA80E94FEF7C6FBA4
:1023A0000FB030BD0D48016841F001010160416886
:1023B0000B4A1140416001680A4A114001600168FE
:1023C00021F480210160416821F4FE0141604FF455
:1023D0001F0181600449C00308607047001002407B
:1023E0000000FFF8FFFFF6FE08ED00E00148FEF7F1
:1023F00004BF0000D0040020F0B50268164B174C53
:10240000174D4FF08047984205D0B84203D0A04204
:1024100001D0A84203D122F070064A6832439842A4
:1024200005D0B84203D0A04201D0A84203D122F483
:102430004074CA6822434C6922F080022243026041
:102440008A68C2620A688262984201D1096901639E
:1024500001214161F0BD0000002C0140000400405A
:102460000008004010B5846842EA032224F47F4447
:102470000A432243826010BD826822F070020A4340
:1024800042F007018160704710B5036A046A24F0C6
:1024900001040462846924F0F00444EA021423F085
:1024A0000A020A438461026210BD10B5036A23F078
:1024B000100303628369046A23F4704343EA02321F
:1024C00024F0A00343EA01118261016210BD10B53E
:1024D000406A0021C185C184FEF75BFF10BD70B565
:1024E000446A2068406994F83910C0F3C010002590
:1024F000212904D118B1E584204600F046F820686F
:10250000406994F83A10C0F38010222904D118B120
:10251000E585204600F02BF8E06B40F01000E0630A
:102520002046FEF736FF70BD10B50146406A0968C7
:102530000968890613D40021C1850168CA6822F49C
:102540008072CA6001684A6922F001024A6101682A
:102550004A6922F040024A61202180F83A10FFF7D0
:102560005FF910BD10B5406AFFF76EF910BD016844
:10257000CA6822F49072CA6001684A6922F00102B6
:102580004A61202180F83A1070470168CA6822F039
:10259000C002CA60202180F83910704710B590F849
:1025A0003A10222901D0022010BD8168B1F5805F68
:1025B00011D00169002901681FD0496801F07F032B
:1025C000816A4A1C82620B70C18D491E0904090C84
:1025D000C18518D02BE00269816A002A026852681E
:1025E00005D0D2B20A80816A491C8162ECE7C2F34D
:1025F00008020A80816A891CF7E74A68816A4B1CD5
:1026000083620A70E0E70168CA6822F02002CA60AB
:102610000168CA6822F48072CA6001684A6922F0BF
:1026200001024A61202180F83A10FFF7F9F80020F2
:1026300010BD00002DE9F041044600680169E26820
:1026400021F44051114301612169A0680843616987
:1026500008432168CA6841F20C639A430243CA6086
:1026600020684169A26921F44071114341611E490A
:10267000206864253226884202D1FEF7FDFA01E087
:10268000FEF7EAFA00EBC00101EB001160686FF0A1
:1026900018078000B1FBF0F2B2FBF5F2B1FBF0F3EA
:1026A0007A4303EB8202B1FBF0F306EB0212B2FBBA
:1026B000F5F2B3FBF5F302F0F00202EB0312B1FB0B
:1026C000F0F3B1FBF0F0B0FBF5F0784303EB8000E2
:1026D00006EB0010B0FBF5F0216800F00F0010448D
:1026E0008860BDE8F08100000038014090F83910A2
:1026F000212901D0022070478168B1F5805F016A0D
:102700000BD04A1C0262026809785160C18C491ED4
:102710000904090CC1840ED017E009880268C1F3CE
:102720000801516001690029016A02D0491C016257
:10273000ECE7891CFBE70168CA6822F08002CA60E6
:102740000068C16841F04001C160002070472DE978
:10275000F041984617460E460446069D1DE0681C4B
:102760001BD02DB1FEF75CF8A0EB0800A84214D9ED
:102770002068C16821F4D071C1602068416921F0EE
:1027800001014161202084F8390084F83A000020DA
:1027900084F838000320BDE8F0812068006836EA3C
:1027A000000004D00020B842D9D00020F3E7012077
:1027B000F9E700000148FEF7EDBD0000100500201C
:1027C0000148FEF7E7BD0000500500200148FEF774
:1027D000E1BD000090050020FEE700000FB4054BAE
:1027E00010B503A9044A029800F028F810BC5DF85F
:1027F00014FB0000092D0008400000200907090E05
:10280000002804DB00F1E02080F80014704700F09D
:102810000F0000F1E02080F8141D704702E008C8A6
:10282000121F08C1002AFAD170477047002001E04A
:1028300001C1121F002AFBD1704700002DE9FF4F94
:102840008DB00F460546002606E025280BD0DDE9B1
:102850000F1290476D1C761C28780028F5D111B016
:102860003046BDE8F08F0024A246A1460122EC4983
:1028700000E0044315F8013F203B02FA03F0084250
:10288000F7D128782A2810D06FF02F022878A0F1ED
:102890003001092914D80AEB8A0102EB410144F006
:1028A000020400EB010A6D1CF0E701CF5FEA000AA9
:1028B00003D544F40054CAF1000A44F002046D1C2C
:1028C00028782E2817D115F8010F44F004042A287F
:1028D0000ED06FF02F022878A0F1300109290AD814
:1028E00009EB890102EB410100EB01096D1CF2E7E4
:1028F00057F8049B6D1C28786C280FD006DC4C28F8
:1029000017D068280DD06A2814D104E0742810D09C
:102910007A280FD10DE044F400140AE044F4801446
:1029200001E044F440146978814202D104F5801436
:102930006D1C6D1C2A786E2A1FD00CDC632A31D0E6
:1029400004DC002A8BD0582A11D1A3E0642A68D075
:10295000692A0CD165E0732A2ED004DC6F2A73D06B
:10296000702A04D19BE0752A6FD0782A6ED0104669
:10297000DDE90F129047761C50E1C4F302500228A3
:1029800006D0032809D0042801CF09D0066045E10C
:1029900001CFF117C0E9006140E101CF06803DE1C0
:1029A00006703BE117F8040B8DF8000000208DF84D
:1029B0000100EB46012003E057F804BB4FF0FF3065
:1029C00061074FF0000102D40DE008F101018846D3
:1029D00049450FDA8045F8DB1BF808100029F4D1CF
:1029E00008E008F1010188468142FADB1BF8081073
:1029F0000029F6D1DDE90F23AAEB08008146214624
:102A000000F036F9304400EB080604E0DDE90F126F
:102A10001BF8010B9047B8F10108F7D22146484650
:102A2000F7E00A21C4F302534FF0000B0891022B88
:102A300004D001CFC117032B09D00AE0FF1D27F0F6
:102A40000707F7E8020108E032E01FE020E000B2EB
:102A5000C117042B01D140B2C117031E71F100034D
:102A600007DA4FF0000CD0EB0C006CEB01012D23CA
:102A700002E0230504D52B238DF82430012303E045
:102A8000E30701D02023F7E7984658E00A2110E039
:102A900010210EE010204FF0000B08900CE01021E8
:102AA0004FF0000B44F004044FF00809089103E0D4
:102AB00008214FF0000B0891C4F30253022B04D0FD
:102AC00001CF0021032B06D006E0FF1D27F00707EA
:102AD000F7E8020103E080B2042B00D1C0B24FF04E
:102AE000000823072BD5702A07D0DDF820C08CF012
:102AF000100C5CEA0B0C05D00EE040238DF824305E
:102B0000012308E050EA010306D030238DF8243079
:102B10008DF8252002239846DDF820C08CF0080CA3
:102B20005CEA0B0C0BD150EA010301D1630706D517
:102B300030238DF824304FF00108A9F10109582AFB
:102B400004D038A20B9208AA0A920BE03AA2F9E745
:102B50005B46089AFDF74BFB0B9B9B5C0A9A521E47
:102B60000A92137050EA0102F2D10A98ADEB00000C
:102B700000F1200B600702D524F4803401E04FF00F
:102B80000109D94502DDA9EB0B0000E0002000EBB4
:102B90000B0141440890AAEB010AE00306D4DDE9E9
:102BA0000F232146504600F063F806444FF0000919
:102BB00008E009A911F80900DDE90F12904709F1B1
:102BC0000109761CC145F4DBE0030CD5DDE90F23D8
:102BD0002146504600F04CF8064404E0DDE90F12AF
:102BE00030209047761C0899481E08900029F5DC93
:102BF00008E00A980A990078491C0A91DDE90F1249
:102C00009047761CBBF10001ABF1010BF1DC2146D2
:102C10005046DDE90F2300F019F806446D1C1BE651
:102C200009280100303132333435363738396162A2
:102C30006364656600000000303132333435363766
:102C40003839414243444546000000002DE9F04137
:102C5000044600251E461746880404D405E039467C
:102C60002020B0476D1C641EF9D52846BDE8F081D0
:102C70002DE9F041044600251E469046C80301D5C3
:102C8000302700E02027880404D505E04146384677
:102C9000B0476D1C641EF9D52846BDE8F0810022BE
:102CA0001146435C491CC9B21A440829F9D3D0B271
:102CB000704700004FF0E0210A6922F004020A6127
:102CC0000649C00800EB40020870C2EBC0104FF686
:102CD000FF7202EAC0004880704700000000002038
:102CE0000849097848434FF0E02148610020886195
:102CF00001220A610A69D30701D0D203FAD508611B
:102D0000886170470000002013B54FF47A730122E8
:102D100069460248FEF799FD01201CBD1005002000
:102D2000FDF774FEFFF717FBFEF72CFEFEF7ECFD38
:102D3000FEF786FEFEF7D8FEFEF7F2FEFEF70CFF6A
:102D4000FEF7A0FE4820FFF7B5FF1748FEF7D8F9B9
:102D5000052216491648FEF717FD1B22154916488D
:102D6000FEF712FD13491B221B311448FEF70CFD20
:102D70001E20FFF73CFAFF280BD1AA211E20FFF7E7
:102D8000B9FA0A491C22491D0D48FFF751FAFEF70E
:102D900001FF064C083C207810B1FFF78FF8FAE7E6
:102DA000FEF704FFF7E70000D00400200C0000202D
:102DB000100500204404002050050020900500204C
:102DC00000F0000800000000000000000102030401
:102DD000060708090000000001020304FC2D00089A
:102DE00000000020440000001C280008402E0008BD
:102DF00044000020240B00002C28000800000000E4
:102E000000000000000000000000000000012C0095
:102E10005A001E0096005A003C001E003C005A005A
:102E20001E0096005A003C001E0000000100000039
:102E300010000000000000000024F400000000006A
:04000005080000ED02
:00000001FF
