:020000040800F2
:10000000C80B002001010008E71B00084D1900087B
:10001000E51B0008B902000899280008000000004C
:10002000000000000000000000000000D9230008CC
:100030002F03000800000000FD1B0008DB23000860
:100040001B0100081B0100081B0100081B01000820
:100050001B0100081B0100081B0100081B01000810
:100060001B0100081B0100081B0100081B01000800
:10007000BD020008C9020008D5020008E10200081C
:10008000ED020008F90200081B0100081B0100082E
:100090001B0100081B0100081B0100081B010008D0
:1000A0001B0100081B0100081B0100081B010008C0
:1000B000752400081B0100081B0100081B01000833
:1000C0001B0100081B0100081B0100081B010008A0
:1000D0001B01000875280008812800088D280008E9
:1000E0001B0100081B0100081B010008DFF80CD0F1
:1000F00000F0D0F800480047052B0008C80B00208E
:100100000648804706480047FEE7FEE7FEE7FEE7B1
:10011000FEE7FEE7FEE7FEE7FEE7FEE72D24000828
:10012000ED000008D2B201E000F8012B491EFBD21D
:1001300070470022F6E710B513460A4604461946F2
:10014000FFF7F0FF204610BD30B480EA010202F054
:10015000004530F0004221F0004013D090B1C30DB3
:10016000D40DC2F31601C0F31600E41A41F40001E5
:1001700040F400027D34914201D3641C00E0490048
:10018000002C02DA30BC002070474FF4000000233E
:10019000914201D3891A034340084FEA4101F7D144
:1001A00051B1914202D14FF0004105E002D24FF02F
:1001B000010101E06FF0010103EBC450284430BCA1
:1001C00000F030B896230022114600F034B8000049
:1001D000002801DBC0F10040002901DBC1F1004132
:1001E00081427047002801DBC0F10040002901DB9B
:1001F000C1F100418842704730B50B4601460020EE
:100200002022012409E021FA02F59D4205D303FAD8
:1002100002F5491B04FA02F52844151EA2F1010259
:10022000F1DC30BD0029A8BF7047401C490008BF61
:1002300020F00100704710B4B0FA80FC00FA0CF016
:1002400050EA010404BF10BC704749B1CCF120044E
:1002500021FA04F411FA0CF118BF012121430843DB
:10026000A3EB0C01CB1D4FEA00614FEA102042BF07
:10027000002010BC704700EBC35010440029A4BFFD
:1002800010BC7047401C490008BF20F0010010BCA2
:1002900070470000064C074D06E0E06840F001039F
:1002A00094E8070098471034AC42F6D3FFF722FFDA
:1002B0005C2E00087C2E0008FEE70000014800F0DC
:1002C00085B8000084070020014800F07FB80000D6
:1002D00040070020014800F079B8000074060020B3
:1002E000014800F073B8000030060020014800F01B
:1002F0006DB80000B8060020014800F067B80000A3
:10030000FC06002030B590F840500124AC40C56B8D
:100310006C60046863604368102B036803D09960C5
:100320000068C26030BD9A600068C16030BD70472F
:100330007047000010B590F821100024022903D066
:100340000421816301243DE001680A6822F00E0265
:100350000A6001680A6822F001020A601A4A01680C
:10036000914201D1012121E0174A1432914201D179
:1003700010211BE0144A2832914201D1891515E061
:10038000114A3C32914201D189140FE00E4A503299
:10039000914202D14FF4803108E00B4A643291421D
:1003A00002D14FF4801101E04FF08071064A083A03
:1003B0005160012180F82110002180F82010416B4C
:1003C00001B18847204610BD080002402DE9F05FCA
:1003D000C16B0C6801680B68D0F840C0042202FAB7
:1003E0000CF2494DDFF824A1494E4A4FDFF828B1FD
:1003F000DFF828E122422CD05A072AD50A68920653
:1004000003D40A6822F004020A600168A94201D1FB
:10041000042219E0514501D1402215E0B14202D138
:100420004FF4806210E0B94202D14FF480420BE0F9
:10043000594502D14FF4802206E0714502D14FF4B4
:10044000800201E04FF080622F4908394A60C16A9A
:100450003BE04FF0020808FA0CF818EA040F4FF0DE
:1004600000094FF0010235D05FEA837832D50B687E
:100470009B0605D40B6823F00A030B6080F821204B
:100480000168A94201D1022219E0514501D120227F
:1004900015E0B14202D14FF4007210E0B94202D12E
:1004A0004FF400520BE0594502D14FF4003206E000
:1004B000714502D14FF4001201E04FF00072124971
:1004C00008394A6080F82090816A00291AD0BDE876
:1004D000F05F0847082505FA0CF5254212D01B07E6
:1004E00010D50B6823F00E030B6090F84010C36B1F
:1004F00002FA01F15960826380F8212080F820908F
:10050000016BE2E7BDE8F09F080002401C000240DA
:100510003000024044000240580002406C0002409B
:1005200030B528B308C8134914221944B1FBF2F1BD
:100530008900C16310498163022141771A6843F63B
:10054000F0718A43D0E900142143D0E902452C43DD
:1005500021430469214344692143846921431143B0
:10056000196000214163012242770177084630BDBE
:10057000012030BDF8FFFDBF0000024070B5044609
:1005800090F82000002501280CD0012084F82000DC
:1005900094F821600020012E06D084F82000022566
:1005A000284670BD022070BD022684F82160A06339
:1005B0002068066826F0010606602046FFF7A2FEC6
:1005C000E06A00282068016802D041F00E0106E0D0
:1005D00021F0040101602068016841F00A01016016
:1005E0002068016841F001010160D9E72DE9F84F69
:1005F000DFF8B891002409F1040A0AF1040B23463C
:100600000F270BF1040EC9E00125A5402A40AA429C
:100610007DD1674ED1F804C0ACEB0608B44532D0AA
:1006200014DCBCF1030F3AD009DCBCF1000F2AD076
:10063000BCF1010F1CD0BCF1020F31D11DE0BCF1A7
:10064000110F17D0BCF1120F2AD119E0B8F5881F8D
:1006500019D006DCB8F5803F15D0B8F5801F1FD142
:1006600011E0B8F5001F0ED0B8F5041F18D10AE04C
:10067000CB6815E0CB681B1D12E0CB6808330FE098
:10068000CB680C330CE08B682BB1012B4FF00803C7
:1006900003D0456104E0042302E0056100E000238B
:1006A000FF2A01D8064601E000F104064FEA84055E
:1006B00001D9A5F12005D6F8008007FA05FC28EA43
:1006C0000C0803FA05F548EA0508C6F800804D68ED
:1006D000ED0062D5374DAE6946F00106AE61AD69F9
:1006E00024F0030605F001050095334D06EB050CDB
:1006F000DCF80850A607360F07FA06F825EA0805C1
:10070000DFF8B880404503D14FF0000817E044E01F
:10071000DFF8AC80404502D14FF001080FE0DFF870
:10072000A480404502D14FF0020808E0DFF898802D
:10073000404502D14FF0030801E04FF0040808FAE9
:1007400006F848EA0508CCF808804D68D9F800603A
:10075000ED034D4601D5164300E096432E604D68EB
:10076000DAF80060AD03554601D5164300E0964324
:100770002E604D68DBF80060ED025D4601D5164342
:1007800000E096432E604D68DEF80060AD027546CD
:1007900001D5164300E096432E60641C0D682A467E
:1007A000E5407FF431AFBDE8F88F00000004014060
:1007B000000011100010024000000140000801403C
:1007C000000C014000100140001401400AB1016119
:1007D00070470904FBE7000001488068704700008B
:1007E0009000002070B504001BD094F83D00002557
:1007F00020B984F83C50204600F0AEF8242084F85C
:100800003D002068016821F00101016000F000FA5C
:100810004D4A6168914201D84C4900E04C498842F8
:1008200001D2012070BD4B492368B0FBF1F15E6835
:1008300026F03F060E435E606368934206D94FF48C
:10084000967359434FF47A73B1FBF3F12368491C53
:100850001E6A26F03F06314319626168914210D842
:100860004900401EB0FBF1F2521CC2F30B02042AF5
:1008700001D2042022E0B0FBF1F0401CC0F30B00D9
:100880001CE0A368F3B301EBC10202EB0116421EA8
:10089000B2FBF6F2521C42F48042120549D093B3E7
:1008A00001EBC10202EB0111401EB0FBF1F0401C54
:1008B000C0F30B0040F4804040F400402168CA6956
:1008C0004CF6FF739A431043C861D4E9070108430B
:1008D00021680A6822F0C00210430860D4E90301CD
:1008E00001432068826848F2FF339A4311438160D4
:1008F000D4E9050108432168CA6822F0FF021043C9
:10090000C86001E00EE016E02068016841F00101D6
:1009100001602564202084F83D00256384F83E5062
:10092000002070BD01EB4106421EB2FBF6F2521CE4
:10093000B3E70120C2E701EB4101401EB0FBF1F03B
:10094000401CC0F30B00B7E7A086010080841E00A6
:1009500000093D0040420F0010B586B00021009113
:1009600001910291039100680F4988421AD10F4CFE
:10097000A06940F00800A061A069694600F0080085
:100980000490C0200090122001900320039008489A
:10099000FFF72CFEE06940F40010E061E06900F42C
:1009A0000010049006B010BD00540040001002403A
:1009B000000C014002488168027811448160704750
:1009C00090000020074810B5016841F01001016057
:1009D000032000F075F8002000F006F800F024F87D
:1009E000002010BD0020024070B50D4D04464FF4AC
:1009F0007A712878B1FBF0F00A490968B1FBF0F090
:100A000000F0ECFA48B9102C07D200222146501E03
:100A100000F036F800206C6070BD012070BD000051
:100A2000900000209C0000200C4808B5816941F02E
:100A300001018161816901F001010091C16941F009
:100A40008051C161C06900F0805000900448416845
:100A500021F0E06141F00071416008BD00100240EA
:100A600000000140002809DB00F01F020121914035
:100A70004009800000F1E020C0F80011704700003C
:100A8000F0B40E4B1B680C46C3F30223C3F10705F9
:100A9000042D00D90425191D072901D2002300E0E7
:100AA000DB1E012606FA05F1491E214099409E40B1
:100AB000761E16403143F0BC01F000BF0CED00E0A3
:100AC000064900F0070208684FF6FF03184040EAA5
:100AD0000220034A10430860704700000CED00E05C
:100AE0000000FA052DE9F0470F46050061D0434E9E
:100AF000306800F00700B84209D2306820F00700E3
:100B000038433060306800F00700B84251D128689F
:100B10003B4C810712D5400703D5606840F4E06084
:100B200060602878000703D5606840F4605060601A
:100B30006068A96820F0F000084360602878C0076A
:100B400028D06868012810D02168022810D08907B1
:100B500000292EDA616821F0030101436160FFF78B
:100B60003BFE804641F288390DE021688903EFE7BA
:100B70008901EDE7FFF730FEA0EB0801494502D9F6
:100B80000320BDE8F0876068696800F00C00B0EBF6
:100B9000810FEFD1306800F00700B8420BD9306800
:100BA00020F0070038433060306800F00700B8429A
:100BB00001D00120E5E72878400705D56068E9689D
:100BC00020F4E060084360602878000706D560687C
:100BD000296920F4605040EAC100606000F038F8F4
:100BE0006168084AC1F30311515CC84006490860B6
:100BF00006480068FFF7F8FE0020C2E70020024028
:100C000000100240442E00089C00002094000020A8
:100C10000448054900684968044AC1F30221515C4F
:100C2000C84070479C00002000100240542E00086D
:100C30000448054900684968044AC1F3C221515C6F
:100C4000C84070479C00002000100240542E00084D
:100C500012A185B00FC98DE80F0014A0144A0068D6
:100C600004905168134801F00C03042B10D0082B9A
:100C70000ED1C1F38343C9031DF803000AD551689F
:100C800004AAC1F34041515C0A4A5043B0FBF1F061
:100C900005B0704708494843FAE70000020304051D
:100CA000060708090A0B0C0D0E0F101001020000B8
:100CB0000010024000127A0000093D002DE9F84FB3
:100CC000040070D02078C04DC00749D06868C0F3D8
:100CD0008100012807D06868C0F38100022809D18B
:100CE0006868C00306D52868800339D56068002885
:100CF000E7D035E06068B0F5803F0BD010B1B0F5BB
:100D0000A02F11D0286820F480302860286820F4B3
:100D1000802002E0286840F480302860606890B14C
:100D2000FFF75AFD06460AE0286840F48020286054
:100D3000F0E700BFFFF750FD801B642873D82868D8
:100D40008003F7D50CE0FFF747FD064605E000BF3E
:100D5000FFF742FD801B6428F0D828688003F7D491
:100D600020789A4E80074FF001094FF0000839D5DE
:100D7000686810F00C0F07D06868C0F38100022883
:100D800009D16868C00306D42868800714D5206993
:100D9000012808D110E02069B0B1C6F80090FFF733
:100DA0001BFD074605E00AE1FFF716FDC01B022800
:100DB000C4D828688007F7D52868616920F0F80052
:100DC00040EAC10028600DE0C6F80080FFF704FD8E
:100DD000074604E0FFF700FDC01B022823D828685F
:100DE0008007F7D4207800072CD57948A169D9B1BC
:100DF000C0F80090FFF7F0FC074604E0FFF7ECFCBA
:100E0000C01B02280FD8686A8007F7D571484FF4D5
:100E1000FA510068B0FBF1F0009000BF0098411E4D
:100E20000091FAD20EE080E0C0F80080FFF7D4FC19
:100E3000074604E0FFF7D0FCC01B022875D8686A9B
:100E40008007F7D42078400760D5E8690027C00004
:100E500008D4E86940F08050E861E869012700F0B3
:100E6000805000905C480168C90513D4016883462E
:100E700041F480710160FFF7AFFC824606E000BFDD
:100E8000FFF7AAFCA0EB0A0064284ED8DBF80000AC
:100E9000C005F5D5E06801280AD008B1052813D0AF
:100EA000286A20F001002862286A20F0040002E08D
:100EB000286A40F001002862E06841F2883B98B15E
:100EC000FFF78AFC82460BE0286A40F004002862A3
:100ED000EEE700BFFFF780FCA0EB0A0159455AD8A6
:100EE000286A8007F6D50CE0FFF776FC824605E01D
:100EF000FFF772FCA0EB0A0159454CD8286A80071D
:100F0000F6D41FB1E86920F08050E861E06988B349
:100F10006968C1F38101022944D00228C6F86080C3
:100F200004D0FFF759FC044638E034E0FFF754FCE6
:100F3000074604E0FFF750FCC01B02282BD82868A6
:100F40008001F7D4206AB0F5803F05D16868A168B8
:100F500020F4003008436860D4E908010843696858
:100F600021F4741108436860C6F86090FFF734FC00
:100F7000044606E025E000BFFFF72EFC001B022818
:100F800009D828688001F7D51BE000BFFFF724FCD3
:100F9000001B022802D90320BDE8F88F28688001D1
:100FA000F4D40EE00128F7D06868226A00F480319A
:100FB000914204D1616A00F47010884201D001208E
:100FC000EAE70020E8E7000000100240000042428B
:100FD000800442429C0000200070004010B5401E7A
:100FE000B0F1807F01D3012010BD4FF0E02460619B
:100FF0000F21601701F062FC0020A0610720206132
:10100000002010BD7047704770B590F83C20012A51
:1010100019D0012400F83C4F0222427050F83C3CA9
:101020005A689D6822F070060A684968324325F0C4
:10103000800529435A6050F83C2C9160447000218F
:101040000170084670BD022070BD10B5040003D0C9
:1010500094F83D0010B107E0012010BD002084F895
:101060003C00204600F00CF8022084F83D00211DD1
:10107000206801F005FA012084F83D00002010BD31
:1010800008B50068B0F1804F12D10A48C16941F03B
:101090000101C161C069002200F001000090114609
:1010A0001C20FFF7EDFCBDE808401C20FFF7DABC70
:1010B00008BD0000001002400168CA6842F0010249
:1010C000CA600068816801F00701062903D0016841
:1010D00041F0010101600020704770B5044690F8AE
:1010E0003C00012817D0012584F83C50022084F8E8
:1010F0003D002068826822F0770222F47F428260FD
:101100000868502830D00DDC20284DD005DC98B37D
:1011100010283BD148E0022070BD302844D0402840
:1011200034D139E0602828D0702806D0B0F5805F2F
:101130002CD0B0F5005F29D10AE0CB68D1E90121BC
:10114000206801F0D3F92068816841F0770109E057
:10115000CB68D1E90121206801F0C8F920688168D5
:1011600041F48041816011E0CA684968206801F05B
:10117000CFF95021206807E016E0CA684968206866
:1011800001F0D7F96021206801F0BAF984F83D50E8
:10119000002084F83C0070BDCA684968206801F0EE
:1011A000B7F940212068EFE7226801461046EBE7D7
:1011B000704770B50446006801694FF00005C943E7
:1011C000890715D4C168C943890711D4E91E016193
:1011D00001202077206880698007204602D0FFF731
:1011E000E7FF04E000F098F8204600F096F8257735
:1011F00020680169C943490717D4C168C943490731
:1012000013D46FF004010161022020772068806907
:1012100010F4407F204602D0FFF7CAFF04E000F040
:101220007BF8204600F079F8257720680169C943EA
:10123000090716D4C168C943090712D46FF0080121
:101240000161042020772068C0698007204602D011
:10125000FFF7AEFF04E000F05FF8204600F05DF815
:10126000257720680169C943C90617D4C168C943F5
:10127000C90613D46FF0100101610820207720689F
:10128000C06910F4407F204602D0FFF791FF04E0D0
:1012900000F042F8204600F040F825772068016908
:1012A000C943C90708D1C168C943C90704D1891E08
:1012B0000161204600F032F820680169C94309063F
:1012C00009D4C168C943090605D46FF080010161E2
:1012D0002046FFF797FE20680169C943490609D4F3
:1012E000C168C943490605D46FF040010161204639
:1012F00000F030F820680169C94389060BD4C16841
:10130000C943890607D46FF0200101612046BDE87A
:101310007040FFF778BE70BD704770470B4900689A
:101320000968884211D10A48C16A491CC16211F199
:10133000020F0AD30021C1628160C1600161416175
:101340008161C161016241628162704730050020A4
:10135000040000207047704770B5026804461068AA
:10136000D168536910F00F0F50D003F0010501F45C
:10137000907635435DD0C20705D0CA0503D5E26B30
:1013800042F00102E263420705D5DA0703D0E26BBF
:1013900042F00202E263820705D5DA0703D0E26B6E
:1013A00042F00402E263020705D5DA0703D0E26BDC
:1013B00042F00802E263E26B002A33D0800604D5D3
:1013C000880602D5204601F049F920684069E16BA2
:1013D000C0F38010090700D428B3204601F027F994
:1013E0002068416949061AD5416921F040014161EF
:1013F000606BA0B11B494163606BFEF79BFF002847
:1014000010D0606B416BBDE870400847830610D573
:101410008B060ED52046BDE8704001F01FB920466E
:10142000FFF799FF70BD2046FFF795FF0020E063AE
:1014300070BD030606D50B0604D52046BDE87040F6
:1014400001F0B4B94006F3D54806F1D5D16820467D
:1014500021F04001D160202184F8391000F074FAA5
:1014600070BD00005725000870B5040004D094F842
:101470003900002510B106E0012070BD84F8385015
:10148000204600F023F8242084F839002068C16841
:1014900021F40051C160204601F02CF92068016957
:1014A00021F4904101612068416921F02A014161E4
:1014B0002068C16841F40051C160E563202084F8D0
:1014C000390084F83A00002070BD00002DE9F04793
:1014D00086B0002500950195029503950446DFF836
:1014E0004882D0F800C0914802210322904B202767
:1014F00080264FF4806A4FF01009C44557D1D0F8C8
:1015000018C04CF4804CC0F818C0D0F818C00CF4C7
:10151000804CCDF810C0D0F818C04CF0040CC0F8C6
:1015200018C08069039200F0040004900802CDE91D
:101530000001694698461846FFF758F8CDE900A51E
:10154000694640460295FFF751F8DFF8EC8179498A
:101550004046C0E90015C0E90256C8F81050C8E975
:101560000557C8F81C50FEF7DBFF08B1FEF7E0FE98
:10157000714FC4F834804437C8F82440C7E9025694
:101580003D616C487D61BD611438FD61C7E90009AA
:101590003846FEF7C5FF08B1FEF7CAFE27630022F2
:1015A000114625207C62FFF76BFA25205EE0DFF80C
:1015B0008C81C4455FD1D0F81CC04CF4003CC0F80D
:1015C0001CC0D0F81CC00CF4003CCDF810C0D0F802
:1015D00018C04CF0040CC0F818C08069039200F0E9
:1015E000040004900420CDE900016946984618469D
:1015F000FEF7FCFF0820CDE900056946404602954C
:10160000FEF7F4FFDFF830814A4908F188084046C8
:101610001431C0E90015C0E90256C8F81050C8E9F5
:101620000557C8F81C50FEF77BFF08B1FEF780FE97
:10163000414FC4F83480CC37C8F82440C7E902567B
:101640003D613C487D61BD612830FD61C7E900090D
:101650003846FEF765FF08B1FEF76AFE27630022F1
:10166000114626207C62FFF70BFA2620FFF7FAF9D5
:1016700006B0BDE8F087324B9C45F9D1C36943F40D
:101680008023C361C36903F480230493836943F017
:10169000080383618069CDE900A100F00800CDE96D
:1016A0000320DFF8A08069464046FEF79FFF4FF415
:1016B0000060CDE90005694640460295FEF796FFB9
:1016C000DFF884801B4940462839C0E90015C0E98D
:1016D0000256C8F81050C8E90557C8F81C50FEF764
:1016E0001FFF08B1FEF724FE174FC4F834804437BB
:1016F000C8F82440C7E902563D610E487D61BD61CE
:101700003C38FD61C7E900093846FEF709FF08B11A
:10171000FEF70EFE27630022114627207C62FFF7AA
:10172000AFF92720A2E70000003801400010024076
:1017300000080140580002403006002000440040EC
:1017400000480040000C014040070020F8B5044666
:1017500090F83A0020283CD1C1B3BAB394F83800CD
:10176000012836D0012084F83800A162A285002526
:10177000E563222084F83A00636B17489862636B34
:101780001648D862636B16481863606B134645634E
:101790000846666B216802463046091DFEF7EEFEDC
:1017A000206801684168009184F83850C16841F4AC
:1017B0008071C1602068416941F001014161206888
:1017C000416941F0400141610020F8BDFFE701207F
:1017D000FBE70220F9E70000B1250008ED2500082D
:1017E000672500080649884202D1064A0121117086
:1017F0000549884203D10348683000F03BBC70477C
:10180000B0050020040000207005002070472DE97D
:10181000F843044690F839001F4616460D46202826
:1018200050D1A5B19EB194F8380001284AD00120CA
:1018300084F838004FF00008C4F83C80212084F878
:101840003900FEF7C9FFA6848146E68426E0012020
:10185000BDE8F883E08C401EE084A0684B46B0F5FC
:10186000805F4FF000024FF080012046009703D0C8
:1018700000F0CDFFE8B90DE000F0C9FFC8B9288835
:101880002168C0F308004860206908B16D1C05E0BC
:10189000AD1C03E0216815F8010B4860E08C0028BE
:1018A000D8D14B46002240212046009700F0AFFFE0
:1018B00008B10320CCE7202084F8390084F8388070
:1018C0000020C5E70220C3E770B5044690F8390050
:1018D000202830D169B362B394F8380001282AD0A7
:1018E000012084F838002162A284E2840025E563A7
:1018F000212084F83900236B10489862236B10482C
:10190000D862236B0F481863206B13464563266823
:10191000206B321DFEF732FE21686FF04000086038
:1019200084F838502068416941F08001416100200D
:1019300070BD012070BD022070BD0000F7250008B9
:10194000252600086725000870477047FEE700005D
:101950001D4808B5416941F001014161406900221B
:1019600000F00100009011460C20FFF789F80C20D0
:10197000FFF778F8002211460D20FFF781F80D20BF
:10198000FFF770F8002211460E20FFF779F80E20BD
:10199000FFF768F8002211460F20FFF771F80F20BB
:1019A000FFF760F8002211461020FFF769F81020B9
:1019B000FFF758F8002211461120FFF761F8BDE843
:1019C00008401120FFF74EB8001002402DE9F04307
:1019D00085B000242C4800940194029403948169FA
:1019E00041F020018161816901F020010491816948
:1019F00041F004018161816901F004010491816970
:101A000041F0080181618069DFF8808000F0080002
:101A10000490012204214046FEF7D8FE46F2380623
:101A2000002231464046FEF7D1FEDFF864904FF4C5
:101A30000847002239464846FEF7C8FE48F2010032
:101A400001258DE8310069464046FEF7CFFD0420B0
:101A5000CDE9000569464046CDE90245FEF7C6FDE1
:101A6000CDE900650226CDE9024669464046FEF70B
:101A7000BDFD00970396CDE9015469464846FEF73F
:101A8000B5FD05B0BDE8F08300100240000C014038
:101A9000000801400E4810B50C4901600D49416035
:101AA00000214FF480428160C0E9031201224261AB
:101AB000F022C0E9062180210162FEF793FE002892
:101AC00003D0BDE81040FEF733BC10BD0054004009
:101AD000DC040020A086010010B586B00024164862
:101AE000009401940294039404944FF0804105946F
:101AF00001604721C0E9011440F2E731C0E9031455
:101B00008461FFF7A2FA08B1FEF712FC4FF480508F
:101B1000009069460848FFF7E0FA08B1FEF708FCB4
:101B2000049404A904480594FFF76EFA002801D034
:101B3000FEF7FEFB06B010BD300500200C4810B5C6
:101B40000A4901604FF4E1314160002181600C22BB
:101B5000C160C0E904128161C161FFF785FC002802
:101B600003D0BDE81040FEF7E3BB10BD00380140D4
:101B7000700500200C4810B50A4901604FF4E131AE
:101B80004160002181600C22C160C0E904128161C2
:101B9000C161FFF769FC002803D0BDE81040FEF7E3
:101BA000C7BB10BD00440040B00500200C4810B574
:101BB0000A4901604FF4E1314160002181600C224B
:101BC000C160C0E904128161C161FFF74DFC0028CA
:101BD00003D0BDE81040FEF7ABBB10BD004800408D
:101BE000F0050020FEE770471C220249024800F081
:101BF00035BB00007100002000F0000870470000B5
:101C00002DE9FE43904D4FF00008904E85F803807B
:101C100044460127687809283DD2DFE800F0050C2A
:101C2000171C21262B303500305D592806D16F70E6
:101C30008DF800002FE0305D592802D085F8018032
:101C400029E08DF801000220687024E0305D8DF8F5
:101C500002000320F8E7305D8DF803000420F3E76D
:101C6000305D8DF804000520EEE7305D8DF805004D
:101C70000620E9E7305D8DF806000720E4E7305DD7
:101C80008DF807000820DFE7684600F0E1FE315DCF
:101C9000884200D1EF70641CE4B2092CBAD385F8F5
:101CA0000180E8784446002852D0EC709DF802008C
:101CB0009DF80310A94600EB0120FEF783FA644962
:101CC000FEF742FA634E8046D6F80001624DD0B16D
:101CD000D6F83C01B8B1614988452FDD6049884597
:101CE00008DCD9E90A01081A0A2831D956482830EF
:101CF000016041E0C5F8BC41C6F88C41C5F8AC7143
:101D0000C6F890414AE0D6F83C01E0B34046D9F825
:101D10003810FEF767FA05D24046D9F83410FEF7BE
:101D200057FA05D94046D9F83010FEF751FA38D89D
:101D30004046D9F83410FEF74BFA0BD8C5F8BC7101
:101D4000C6F88C71C5F8AC41C6F89041C6F89471DC
:101D5000BDE8FE834A46D9F8080000F0CDFE0A2807
:101D6000F6D991464046916BFEF732FAF0D83649E3
:101D7000D9F82C0008310860D5F8BC0180F00100CA
:101D8000C5F8BC0100E013E0D6F88C0180F001003A
:101D9000C6F88C01C5F8AC41C6F89071C6F89441FC
:101DA000D6E74046D9F83010FEF71CFAD0D2A1E7AA
:101DB0004046D9F83C10FEF70BFA3ED84046D9F819
:101DC0004810FEF705FA04D8C5F8BC41C6F88C7176
:101DD00030E04F464046D9F84410FEF7F9F907D2F3
:101DE0007969F86A411A0229B2D91749143118E001
:101DF0004046396CFEF7ECF907D83969F86A411AA0
:101E00000529A5D9104910310BE04046F96BFEF7C2
:101E1000DFF99DD8F968F86A411A0A2998D90A4960
:101E20000C310860D5F8BC0180F00100C5F8BC0198
:101E3000C6F88C41C5F8AC418AE7C5F8BC41C6F884
:101E40008C41C5F8AC7183E704000020BF0400207A
:101E50000000C84200802142000021429A99193FA7
:101E6000000040402DE9FE437D4C4FF000087D4FBF
:101E700084F8048045460126A07809283DD2DFE891
:101E800000F0050C171C21262B303500785D5928F1
:101E900006D1A6708DF800002FE0785D592802D099
:101EA00084F8028029E08DF801000220A07024E06F
:101EB000785D8DF802000320F8E7785D8DF8030067
:101EC0000420F3E7785D8DF804000520EEE7785DE7
:101ED0008DF805000620E9E7785D8DF806000720FB
:101EE000E4E7785D8DF807000820DFE7684600F03A
:101EF000AFFD795D884200D126716D1CEDB2092DD0
:101F0000BAD384F802802079454600287AD025711A
:101F10009DF802009DF80310A04600EB0120FEF79B
:101F200051F95149FEF710F9504F8146D7F83C015D
:101F30004F4CC0B34846D8F85410FEF753F905D2B9
:101F40004846D8F85010FEF743F905D94846D8F866
:101F50004C10FEF73DF92ED8D8E91310FEF738F9EA
:101F600003D200BFC4F8BC613AE0D8F8180000F012
:101F7000C3FD0A2818D94846D8F84C10FEF728F9AE
:101F800012D83749D8F82C0018310860D4F8BC01B1
:101F900080F00100C4F8BC01D7F88C0180F001008A
:101FA000C7F88C0151E00DE04846D8F85010FEF714
:101FB0000FF94CD8D6E74846D8F84C10FEF712F97E
:101FC00045D246E04846D8F85810FEF701F940D807
:101FD0004846D8F86410FEF7FBF804D8C4F8BC51A2
:101FE000C7F88C6131E046464846D8F86010FEF7E5
:101FF000EFF808D8716AF06A411A022927D91849FE
:10200000243119E023E04846F16DFEF7E1F807D8E6
:10201000316AF06A411A052919D9114920310BE0BA
:102020004846B16DFEF7D4F811D8F169F06A411A4B
:102030000A290CD90A491C310860D4F8BC0180F087
:102040000100C4F8BC01C7F88C51C4F8AC51BDE81C
:10205000FE83C4F8BC51C7F88C51C4F8AC61F6E7F4
:1020600004000020A40400200000C8420080214297
:102070000000214270B504460078A5281FD1607881
:102080005A281CD1A078564D1B2818D2DFE800F042
:102090000E17181723172E17391744174F175A17EB
:1020A000651770177B17861791179C000122E11C9A
:1020B0004C4800F001F9E07828702079687070BD14
:1020C00048480122E11C801C00F0F6F8E078A87076
:1020D0002079E87070BD43480122E11C001D00F02A
:1020E000EBF8E07828712079687170BD3D480222D4
:1020F000E11C801D00F0E0F8E078A8712079E8711B
:1021000070BD38480222E11C083000F0D5F8E078B4
:1021100028722079687270BD32480222E11C0A30B0
:1021200000F0CAF8E078A8722079E87270BD2D48F6
:102130000222E11C0C3000F0BFF8E078287320790F
:10214000687370BD27480222E11C0E3000F0B4F81D
:10215000E078A8732079E87370BD22480222E11C60
:10216000103000F0A9F8E07828742079687470BD08
:102170001C480222E11C123000F09EF8E078A8749E
:102180002079E87470BD17480222E11C143000F079
:1021900093F8E07828752079687570BD114802229F
:1021A000E11C163000F088F8E078A8752079E87511
:1021B00070BD0C480222E11C183000F07DF8E07878
:1021C00028762079687670BD06480222E11C1A3014
:1021D00000F072F8E078A8762079E87670BD00000B
:1021E0007100002000F0000870B5054645F6FF7646
:1021F000304600F04FF8002812D10A4C206940F018
:10220000020020616561206940F040002061304695
:1022100000F040F8012803D0216921F0020121617A
:1022200070BD0000002002400748C068C10701D00F
:1022300001207047410701D502207047C00601D533
:1022400003207047002070470020024002480169C7
:1022500041F08001016170470020024010B5002369
:1022600006E000BF30F8024B21F813405B1C9BB224
:102270009342F7D310BD008870470000034802491D
:1022800041600349416070472301674500200240D7
:10229000AB89EFCD10B50446FFF7C6FF012803D088
:1022A000002C00D1FF2010BD012000F005FC641EB1
:1022B0002404240CF0D1F5E72DE9F05F1546A0F1D8
:1022C00000628A468346B2F5003F53D2FFF7D6FF3D
:1022D000C2F34806970AC6F50074A54200D82C46FA
:1022E000DFF894904FF0006000EB872080464FF4B9
:1022F00000722149FFF7B2FF00204FF6FF7106E0A0
:10230000331839F813208A4203D1401C80B2A0420E
:10231000F6D3A04226D24046FFF766FF002049468A
:1023200007E000BF3AF810208319401C21F8132061
:1023300080B2A042F6D3104940464FF4007200BF6D
:1023400000F036F8A54211D0281B0AEB440A0BEB2B
:10235000440B002685B24FF400747F1CA542C1D8FF
:102360002C46BFE7224651465846E9E7BDE8F05FF4
:10237000FFF76CBFBDE8F09FA400002070B50646D3
:102380000D46FF20FFF786FF00280ED1074C20697D
:1023900040F0010020613580FF20FFF77BFF01281E
:1023A00003D0216921F00101216170BD00200240AC
:1023B0002DE9F04116460F460546002408E000BF0F
:1023C00037F814102846FFF7D9FF641CA4B2AD1CDF
:1023D000B442F5D3BDE8F0817047FEF7EBBA30B5F3
:1023E0008FB028216846FDF7A4FE14210AA8FDF746
:1023F000A0FE01210804CDE900100024029402256A
:102400000491CDE907504FF4E01009906846FEF7BB
:1024100055FC0F20CDE90A056802CDE90C400221E8
:102420000AA80E94FEF75EFB0FB030BD0D480168A0
:1024300041F00101016041680B4A114041600168AF
:102440000A4A11400160016821F48021016041685D
:1024500021F4FE0141604FF41F0181600449C00373
:1024600008607047001002400000FFF8FFFFF6FE12
:1024700008ED00E00148FEF79CBE0000300500209A
:10248000F0B50268164B174C174D4FF08047984235
:1024900005D0B84203D0A04201D0A84203D122F017
:1024A00070064A683243984205D0B84203D0A04231
:1024B00001D0A84203D122F44074CA6822434C6977
:1024C00022F08002224302608A68C2620A68826245
:1024D000984201D10969016301214161F0BD000009
:1024E000002C0140000400400008004010B5846842
:1024F00042EA032224F47F440A432243826010BD4F
:10250000826822F070020A4342F00701816070473E
:1025100010B5036A046A24F001040462846924F09B
:10252000F00444EA021423F00A020A4384610262BE
:1025300010BD10B5036A23F0100303628369046AB7
:1025400023F4704343EA023224F0A00343EA01116A
:102550008261016210BD10B5406A0021C185C1844D
:10256000FEF7F9FE10BD70B5446A2068406994F822
:102570003910C0F3C0100025212904D118B1E58419
:10258000204600F062F82068406994F83A10C0F3E1
:102590008010222904D118B1E585204600F047F8C3
:1025A000E06B40F01000E0632046FEF7D4FE70BD03
:1025B00010B50146406A09680968890613D40021EC
:1025C000C1850168CA6822F48072CA6001684A69DC
:1025D00022F001024A6101684A6922F040024A6120
:1025E000202180F83A10FFF7FDF810BD10B5406AC1
:1025F000FFF70CF910BD10B50146406A096809687B
:1026000089060CD40021C18401684A6922F0800245
:102610004A610068C16841F04001C16010BDFFF728
:1026200093F910BD10B5406AFFF78FF910BD01682E
:10263000CA6822F49072CA6001684A6922F00102F5
:102640004A61202180F83A1070470168CA6822F078
:10265000C002CA60202180F83910704710B590F888
:102660003A10222901D0022010BD8168B1F5805FA7
:1026700011D00169002901681FD0496801F07F036A
:10268000816A4A1C82620B70C18D491E0904090CC3
:10269000C18518D02BE00269816A002A026852685D
:1026A00005D0D2B20A80816A491C8162ECE7C2F38C
:1026B00008020A80816A891CF7E74A68816A4B1C14
:1026C00083620A70E0E70168CA6822F02002CA60EB
:1026D0000168CA6822F48072CA6001684A6922F0FF
:1026E00001024A61202180F83A10FFF77BF80020B0
:1026F00010BD00002DE9F041044600680169E26860
:1027000021F44051114301612169A06808436169C6
:1027100008432168CA6841F20C639A430243CA60C5
:1027200020684169A26921F44071114341611E4949
:10273000206864253226884202D1FEF779FA01E04A
:10274000FEF766FA00EBC00101EB001160686FF064
:1027500018078000B1FBF0F2B2FBF5F2B1FBF0F329
:102760007A4303EB8202B1FBF0F306EB0212B2FBF9
:10277000F5F2B3FBF5F302F0F00202EB0312B1FB4A
:10278000F0F3B1FBF0F0B0FBF5F0784303EB800021
:1027900006EB0010B0FBF5F0216800F00F001044CC
:1027A0008860BDE8F08100000038014090F83910E1
:1027B000212901D0022070478168B1F5805F016A4C
:1027C0000BD04A1C0262026809785160C18C491E14
:1027D0000904090CC1840ED017E009880268C1F30E
:1027E0000801516001690029016A02D0491C016297
:1027F000ECE7891CFBE70168CA6822F08002CA6026
:102800000068C16841F04001C160002070472DE9B7
:10281000F041984617460E460446069D1DE0681C8A
:102820001BD02DB1FDF7D8FFA0EB0800A84214D9AA
:102830002068C16821F4D071C1602068416921F02D
:1028400001014161202084F8390084F83A00002019
:1028500084F838000320BDE8F0812068006836EA7B
:10286000000004D00020B842D9D00020F3E70120B6
:10287000F9E700000148FEF76FBD00007005002079
:102880000148FEF769BD0000B00500200148FEF7D1
:1028900063BD0000F0050020FEE700000FB4054B0B
:1028A00010B503A9044A029800F028F810BC5DF89E
:1028B00014FB0000E12A0008A00000200907090E0F
:1028C000002804DB00F1E02080F80014704700F0DD
:1028D0000F0000F1E02080F8141D704702E008C8E6
:1028E000121F08C1002AFAD170477047002001E08A
:1028F00001C1121F002AFBD1704700002DE9FF4FD4
:1029000089B09B460446002506E025280BD05A4690
:102910000B999047641C6D1C20780028F5D10DB0F0
:102920002846BDE8F08F0027B8460122474900E05D
:10293000074314F8013F203B02FA03F00842F7D1A5
:1029400020782E2819D114F8010F47F004072A28FF
:102950000ED06FF02F022078A0F1300109290CD899
:1029600008EB880102EB410100EB0108641CF2E76F
:102970000A98641C50F8048B0A9020780028CED066
:10298000642808D0692806D075281ED05A460B99AD
:1029900090476D1C58E00A994FF00A0901C90A9145
:1029A000002802DA40422D2102E0390504D52B210E
:1029B0008DF82010012103E0F90704D02021F7E76A
:1029C0008A4608AE0DE00021FAE70A994FF00A099D
:1029D00001C90A91F7E74946FDF70EFC303106F8C8
:1029E000011D0028F7D1ADEB060000F120097807A2
:1029F00001D44FF00108C84502DDA8EB090000E052
:102A000000208046002706E008A85A46C05D0B99C2
:102A100090476D1C7F1C5745F6DB04E030205A467A
:102A20000B9990476D1CB8F10001A8F10108F5DC85
:102A300005E016F8010B5A460B9990476D1CB9F149
:102A40000001A9F10109F4DC641C65E70928010013
:102A500000221146435C491CC9B21A440829F9D323
:102A6000D0B270474FF0E0210A6922F004020A61F7
:102A70000649C00800EB40020870C2EBC0104FF6D8
:102A8000FF7202EAC000488070470000000000208A
:102A90000849498848434FF0E02148610020886197
:102AA00001220A610A69D30701D0D203FAD508616D
:102AB00088617047000000200849097848434FF0BA
:102AC000E02148610020886101220A610A69D30778
:102AD00001D0D203FAD50861886170470000002058
:102AE00013B54FF47A73012269460248FEF78FFE50
:102AF00001201CBD700500200149C96A081A7047F1
:102B000004000020FDF75EFFFFF769FCFEF75EFFA3
:102B1000FEF71EFFFEF7BEFFFFF710F8FFF72AF8DB
:102B2000FFF744F8FEF7D8FF4820FFF79BFF4FF46C
:102B30007A70FFF7ADFFB848FEF7BEFA0522B74935
:102B4000B748FEF703FE1B22B649B748FEF7FEFD65
:102B5000B4491B221B31B548FEF7F8FDB44D284699
:102B6000FFF789FBC4B22146B2A0FFF797FEDFF85A
:102B7000C092FF2CA9F11E090BD1AA212846FFF70C
:102B8000FDFBA6491C22491D4846FFF795FBFFF7B0
:102B90002BF8A24C641D6078217800EB0120FDF732
:102BA00011FBA74E3146FDF7CFFAA4F16D0528635E
:102BB000E078A17800EB0120FDF704FB3146FDF73A
:102BC000C3FA68636079217900EB0120FDF7FAFA16
:102BD0003146FDF7B9FAA863E079A17900EB01204D
:102BE000FDF7F0FA3146FDF7AFFAE863607A217A33
:102BF00000EB0120FDF7E6FA3146FDF7A5FA28645F
:102C0000E07AA17A00EB0120FDF7DCFA3146FDF70E
:102C10009BFA6864607B217B00EB0120FDF7D2FA10
:102C20003146FDF791FAA864E07BA17B00EB01201F
:102C3000FDF7C8FA3146FDF787FAE864607C217C2D
:102C400000EB0120FDF7BEFA3146FDF77DFA28655D
:102C5000E07CA17C00EB0120FDF7B4FA3146FDF7E2
:102C600073FA6865607D217D00EB0120FDF7AAFA0B
:102C70003146FDF769FAA865E07DA17D00EB0120F2
:102C8000FDF7A0FA3146FDF75FFAE865607E217E28
:102C900000EB0120FDF796FA3146FDF755FA28665C
:102CA000E07EA17E00EB0120FDF78CFA3146FDF7B6
:102CB0004BFA4FF0140803276866287840B1FFF7F5
:102CC000D1F8E96AB1FBF8F208FB121018B194E0F0
:102CD000FEF796FFF5E751491C22491D4846FFF7CC
:102CE000BDFA6078217800EB0120FDF76BFA3146E0
:102CF000FDF72AFA2863E078A17800EB0120FDF7C0
:102D000061FA3146FDF720FA68636079217900EBBA
:102D10000120FDF757FA3146FDF716FAA863E0796E
:102D2000A17900EB0120FDF74DFA3146FDF70CFAD1
:102D3000E863607A217A00EB0120FDF743FA31461F
:102D4000FDF702FA2864E07AA17A00EB0120FDF792
:102D500039FA3146FDF7F8F96864607B217B00EBB6
:102D60000120FDF72FFA3146FDF7EEF9A864E07B6C
:102D7000A17B00EB0120FDF725FA3146FDF7E4F9D0
:102D8000E864607C217C00EB0120FDF71BFA3146F2
:102D9000FDF7DAF92865E07CA17C00EB0120FDF766
:102DA00011FA3146FDF7D0F96865607D217D00EBB1
:102DB0000120FDF707FA3146FDF7C6F9A865E07D69
:102DC000A17D00EB0120FDF7FDF93146FDF7BCF9CF
:102DD000E865607E217E00EB0120FDF7F3F93146C6
:102DE000FDF7B2F92866E07EA17E00EB0120FDF739
:102DF000E9F93146FDF7A8F96866E86AB0FBF7F132
:102E000007FB110000287FF458AF04491C22491D1C
:102E10000348FEF759FD50E7300500206C00002004
:102E200070050020A4040020B0050020F00500205B
:102E30001EF0000873746172743D25640A0000007E
:102E40000000C8420000000000000000010203046E
:102E50000607080900000000010203047C2E000898
:102E600000000020A4000000DC280008202F00083B
:102E7000A4000020240B0000EC2800080000000043
:102E80000000000000000000000000000000000042
:102E90000000000000000000000000000000000032
:102EA0000000000000000000000000000000000022
:102EB0000000000000000000000000000000000012
:102EC0000000000000000000000000000000000002
:102ED00000000000000000000000000000000000F2
:102EE00000000000000000000000000000012C00B5
:102EF0005A001E0096005A003C001E003C005A007A
:102F00001E0096005A003C001E0000000100000058
:102F100010000000000000000024F4000000000089
:04000005080000ED02
:00000001FF
